{
	"data": {
		"bytecode": {
			"linkReferences": {},
			"object": "608060405234801561001057600080fd5b506106aa806100206000396000f3fe608060405234801561001057600080fd5b506004361061002b5760003560e01c80636cf285c814610030575b600080fd5b61004a60048036038101906100459190610477565b610060565b604051610057919061053f565b60405180910390f35b606060405160200161007190610650565b6040516020818303038152906040529050919050565b6000604051905090565b600080fd5b600080fd5b600080fd5b6000601f19601f8301169050919050565b7f4e487b7100000000000000000000000000000000000000000000000000000000600052604160045260246000fd5b6100e9826100a0565b810181811067ffffffffffffffff82111715610108576101076100b1565b5b80604052505050565b600061011b610087565b905061012782826100e0565b919050565b600080fd5b600080fd5b600067ffffffffffffffff821115610151576101506100b1565b5b602082029050602081019050919050565b600080fd5b6000819050919050565b61017a81610167565b811461018557600080fd5b50565b60008135905061019781610171565b92915050565b60006101b06101ab84610136565b610111565b905080838252602082019050602084028301858111156101d3576101d2610162565b5b835b818110156101fc57806101e88882610188565b8452602084019350506020810190506101d5565b5050509392505050565b600082601f83011261021b5761021a610131565b5b813561022b84826020860161019d565b91505092915050565b600080fd5b600067ffffffffffffffff821115610254576102536100b1565b5b61025d826100a0565b9050602081019050919050565b82818337600083830152505050565b600061028c61028784610239565b610111565b9050828152602081018484840111156102a8576102a7610234565b5b6102b384828561026a565b509392505050565b600082601f8301126102d0576102cf610131565b5b81356102e0848260208601610279565b91505092915050565b600073ffffffffffffffffffffffffffffffffffffffff82169050919050565b6000610314826102e9565b9050919050565b600061032682610309565b9050919050565b6103368161031b565b811461034157600080fd5b50565b6000813590506103538161032d565b92915050565b600061036482610309565b9050919050565b61037481610359565b811461037f57600080fd5b50565b6000813590506103918161036b565b92915050565b600060a082840312156103ad576103ac61009b565b5b6103b760a0610111565b9050600082013567ffffffffffffffff8111156103d7576103d661012c565b5b6103e384828501610206565b600083015250602082013567ffffffffffffffff8111156104075761040661012c565b5b61041384828501610206565b602083015250604082013567ffffffffffffffff8111156104375761043661012c565b5b610443848285016102bb565b604083015250606061045784828501610344565b606083015250608061046b84828501610382565b60808301525092915050565b60006020828403121561048d5761048c610091565b5b600082013567ffffffffffffffff8111156104ab576104aa610096565b5b6104b784828501610397565b91505092915050565b600081519050919050565b600082825260208201905092915050565b60005b838110156104fa5780820151818401526020810190506104df565b60008484015250505050565b6000610511826104c0565b61051b81856104cb565b935061052b8185602086016104dc565b610534816100a0565b840191505092915050565b600060208201905081810360008301526105598184610506565b905092915050565b600081905092915050565b7f3c73766720786d6c6e733d22687474703a2f2f7777772e77332e6f72672f323060008201527f30302f7376672220786d6c6e733a786c696e6b3d22687474703a2f2f7777772e60208201527f77332e6f72672f313939392f786c696e6b222076696577426f783d223020302060408201527f35303020353030223e0000000000000000000000000000000000000000000000606082015250565b6000610614606983610561565b915061061f8261056c565b606982019050919050565b7f3c2f7376673e0000000000000000000000000000000000000000000000000000815250565b600061065b82610607565b91506106668261062a565b60068201915081905091905056fea2646970667358221220f68015ad896ff2254e0e3c9060265293631e67bd890f7bfcc3af6d3ea49be0a864736f6c63430008120033",
			"opcodes": "PUSH1 0x80 PUSH1 0x40 MSTORE CALLVALUE DUP1 ISZERO PUSH2 0x10 JUMPI PUSH1 0x0 DUP1 REVERT JUMPDEST POP PUSH2 0x6AA DUP1 PUSH2 0x20 PUSH1 0x0 CODECOPY PUSH1 0x0 RETURN INVALID PUSH1 0x80 PUSH1 0x40 MSTORE CALLVALUE DUP1 ISZERO PUSH2 0x10 JUMPI PUSH1 0x0 DUP1 REVERT JUMPDEST POP PUSH1 0x4 CALLDATASIZE LT PUSH2 0x2B JUMPI PUSH1 0x0 CALLDATALOAD PUSH1 0xE0 SHR DUP1 PUSH4 0x6CF285C8 EQ PUSH2 0x30 JUMPI JUMPDEST PUSH1 0x0 DUP1 REVERT JUMPDEST PUSH2 0x4A PUSH1 0x4 DUP1 CALLDATASIZE SUB DUP2 ADD SWAP1 PUSH2 0x45 SWAP2 SWAP1 PUSH2 0x477 JUMP JUMPDEST PUSH2 0x60 JUMP JUMPDEST PUSH1 0x40 MLOAD PUSH2 0x57 SWAP2 SWAP1 PUSH2 0x53F JUMP JUMPDEST PUSH1 0x40 MLOAD DUP1 SWAP2 SUB SWAP1 RETURN JUMPDEST PUSH1 0x60 PUSH1 0x40 MLOAD PUSH1 0x20 ADD PUSH2 0x71 SWAP1 PUSH2 0x650 JUMP JUMPDEST PUSH1 0x40 MLOAD PUSH1 0x20 DUP2 DUP4 SUB SUB DUP2 MSTORE SWAP1 PUSH1 0x40 MSTORE SWAP1 POP SWAP2 SWAP1 POP JUMP JUMPDEST PUSH1 0x0 PUSH1 0x40 MLOAD SWAP1 POP SWAP1 JUMP JUMPDEST PUSH1 0x0 DUP1 REVERT JUMPDEST PUSH1 0x0 DUP1 REVERT JUMPDEST PUSH1 0x0 DUP1 REVERT JUMPDEST PUSH1 0x0 PUSH1 0x1F NOT PUSH1 0x1F DUP4 ADD AND SWAP1 POP SWAP2 SWAP1 POP JUMP JUMPDEST PUSH32 0x4E487B7100000000000000000000000000000000000000000000000000000000 PUSH1 0x0 MSTORE PUSH1 0x41 PUSH1 0x4 MSTORE PUSH1 0x24 PUSH1 0x0 REVERT JUMPDEST PUSH2 0xE9 DUP3 PUSH2 0xA0 JUMP JUMPDEST DUP2 ADD DUP2 DUP2 LT PUSH8 0xFFFFFFFFFFFFFFFF DUP3 GT OR ISZERO PUSH2 0x108 JUMPI PUSH2 0x107 PUSH2 0xB1 JUMP JUMPDEST JUMPDEST DUP1 PUSH1 0x40 MSTORE POP POP POP JUMP JUMPDEST PUSH1 0x0 PUSH2 0x11B PUSH2 0x87 JUMP JUMPDEST SWAP1 POP PUSH2 0x127 DUP3 DUP3 PUSH2 0xE0 JUMP JUMPDEST SWAP2 SWAP1 POP JUMP JUMPDEST PUSH1 0x0 DUP1 REVERT JUMPDEST PUSH1 0x0 DUP1 REVERT JUMPDEST PUSH1 0x0 PUSH8 0xFFFFFFFFFFFFFFFF DUP3 GT ISZERO PUSH2 0x151 JUMPI PUSH2 0x150 PUSH2 0xB1 JUMP JUMPDEST JUMPDEST PUSH1 0x20 DUP3 MUL SWAP1 POP PUSH1 0x20 DUP2 ADD SWAP1 POP SWAP2 SWAP1 POP JUMP JUMPDEST PUSH1 0x0 DUP1 REVERT JUMPDEST PUSH1 0x0 DUP2 SWAP1 POP SWAP2 SWAP1 POP JUMP JUMPDEST PUSH2 0x17A DUP2 PUSH2 0x167 JUMP JUMPDEST DUP2 EQ PUSH2 0x185 JUMPI PUSH1 0x0 DUP1 REVERT JUMPDEST POP JUMP JUMPDEST PUSH1 0x0 DUP2 CALLDATALOAD SWAP1 POP PUSH2 0x197 DUP2 PUSH2 0x171 JUMP JUMPDEST SWAP3 SWAP2 POP POP JUMP JUMPDEST PUSH1 0x0 PUSH2 0x1B0 PUSH2 0x1AB DUP5 PUSH2 0x136 JUMP JUMPDEST PUSH2 0x111 JUMP JUMPDEST SWAP1 POP DUP1 DUP4 DUP3 MSTORE PUSH1 0x20 DUP3 ADD SWAP1 POP PUSH1 0x20 DUP5 MUL DUP4 ADD DUP6 DUP2 GT ISZERO PUSH2 0x1D3 JUMPI PUSH2 0x1D2 PUSH2 0x162 JUMP JUMPDEST JUMPDEST DUP4 JUMPDEST DUP2 DUP2 LT ISZERO PUSH2 0x1FC JUMPI DUP1 PUSH2 0x1E8 DUP9 DUP3 PUSH2 0x188 JUMP JUMPDEST DUP5 MSTORE PUSH1 0x20 DUP5 ADD SWAP4 POP POP PUSH1 0x20 DUP2 ADD SWAP1 POP PUSH2 0x1D5 JUMP JUMPDEST POP POP POP SWAP4 SWAP3 POP POP POP JUMP JUMPDEST PUSH1 0x0 DUP3 PUSH1 0x1F DUP4 ADD SLT PUSH2 0x21B JUMPI PUSH2 0x21A PUSH2 0x131 JUMP JUMPDEST JUMPDEST DUP2 CALLDATALOAD PUSH2 0x22B DUP5 DUP3 PUSH1 0x20 DUP7 ADD PUSH2 0x19D JUMP JUMPDEST SWAP2 POP POP SWAP3 SWAP2 POP POP JUMP JUMPDEST PUSH1 0x0 DUP1 REVERT JUMPDEST PUSH1 0x0 PUSH8 0xFFFFFFFFFFFFFFFF DUP3 GT ISZERO PUSH2 0x254 JUMPI PUSH2 0x253 PUSH2 0xB1 JUMP JUMPDEST JUMPDEST PUSH2 0x25D DUP3 PUSH2 0xA0 JUMP JUMPDEST SWAP1 POP PUSH1 0x20 DUP2 ADD SWAP1 POP SWAP2 SWAP1 POP JUMP JUMPDEST DUP3 DUP2 DUP4 CALLDATACOPY PUSH1 0x0 DUP4 DUP4 ADD MSTORE POP POP POP JUMP JUMPDEST PUSH1 0x0 PUSH2 0x28C PUSH2 0x287 DUP5 PUSH2 0x239 JUMP JUMPDEST PUSH2 0x111 JUMP JUMPDEST SWAP1 POP DUP3 DUP2 MSTORE PUSH1 0x20 DUP2 ADD DUP5 DUP5 DUP5 ADD GT ISZERO PUSH2 0x2A8 JUMPI PUSH2 0x2A7 PUSH2 0x234 JUMP JUMPDEST JUMPDEST PUSH2 0x2B3 DUP5 DUP3 DUP6 PUSH2 0x26A JUMP JUMPDEST POP SWAP4 SWAP3 POP POP POP JUMP JUMPDEST PUSH1 0x0 DUP3 PUSH1 0x1F DUP4 ADD SLT PUSH2 0x2D0 JUMPI PUSH2 0x2CF PUSH2 0x131 JUMP JUMPDEST JUMPDEST DUP2 CALLDATALOAD PUSH2 0x2E0 DUP5 DUP3 PUSH1 0x20 DUP7 ADD PUSH2 0x279 JUMP JUMPDEST SWAP2 POP POP SWAP3 SWAP2 POP POP JUMP JUMPDEST PUSH1 0x0 PUSH20 0xFFFFFFFFFFFFFFFFFFFFFFFFFFFFFFFFFFFFFFFF DUP3 AND SWAP1 POP SWAP2 SWAP1 POP JUMP JUMPDEST PUSH1 0x0 PUSH2 0x314 DUP3 PUSH2 0x2E9 JUMP JUMPDEST SWAP1 POP SWAP2 SWAP1 POP JUMP JUMPDEST PUSH1 0x0 PUSH2 0x326 DUP3 PUSH2 0x309 JUMP JUMPDEST SWAP1 POP SWAP2 SWAP1 POP JUMP JUMPDEST PUSH2 0x336 DUP2 PUSH2 0x31B JUMP JUMPDEST DUP2 EQ PUSH2 0x341 JUMPI PUSH1 0x0 DUP1 REVERT JUMPDEST POP JUMP JUMPDEST PUSH1 0x0 DUP2 CALLDATALOAD SWAP1 POP PUSH2 0x353 DUP2 PUSH2 0x32D JUMP JUMPDEST SWAP3 SWAP2 POP POP JUMP JUMPDEST PUSH1 0x0 PUSH2 0x364 DUP3 PUSH2 0x309 JUMP JUMPDEST SWAP1 POP SWAP2 SWAP1 POP JUMP JUMPDEST PUSH2 0x374 DUP2 PUSH2 0x359 JUMP JUMPDEST DUP2 EQ PUSH2 0x37F JUMPI PUSH1 0x0 DUP1 REVERT JUMPDEST POP JUMP JUMPDEST PUSH1 0x0 DUP2 CALLDATALOAD SWAP1 POP PUSH2 0x391 DUP2 PUSH2 0x36B JUMP JUMPDEST SWAP3 SWAP2 POP POP JUMP JUMPDEST PUSH1 0x0 PUSH1 0xA0 DUP3 DUP5 SUB SLT ISZERO PUSH2 0x3AD JUMPI PUSH2 0x3AC PUSH2 0x9B JUMP JUMPDEST JUMPDEST PUSH2 0x3B7 PUSH1 0xA0 PUSH2 0x111 JUMP JUMPDEST SWAP1 POP PUSH1 0x0 DUP3 ADD CALLDATALOAD PUSH8 0xFFFFFFFFFFFFFFFF DUP2 GT ISZERO PUSH2 0x3D7 JUMPI PUSH2 0x3D6 PUSH2 0x12C JUMP JUMPDEST JUMPDEST PUSH2 0x3E3 DUP5 DUP3 DUP6 ADD PUSH2 0x206 JUMP JUMPDEST PUSH1 0x0 DUP4 ADD MSTORE POP PUSH1 0x20 DUP3 ADD CALLDATALOAD PUSH8 0xFFFFFFFFFFFFFFFF DUP2 GT ISZERO PUSH2 0x407 JUMPI PUSH2 0x406 PUSH2 0x12C JUMP JUMPDEST JUMPDEST PUSH2 0x413 DUP5 DUP3 DUP6 ADD PUSH2 0x206 JUMP JUMPDEST PUSH1 0x20 DUP4 ADD MSTORE POP PUSH1 0x40 DUP3 ADD CALLDATALOAD PUSH8 0xFFFFFFFFFFFFFFFF DUP2 GT ISZERO PUSH2 0x437 JUMPI PUSH2 0x436 PUSH2 0x12C JUMP JUMPDEST JUMPDEST PUSH2 0x443 DUP5 DUP3 DUP6 ADD PUSH2 0x2BB JUMP JUMPDEST PUSH1 0x40 DUP4 ADD MSTORE POP PUSH1 0x60 PUSH2 0x457 DUP5 DUP3 DUP6 ADD PUSH2 0x344 JUMP JUMPDEST PUSH1 0x60 DUP4 ADD MSTORE POP PUSH1 0x80 PUSH2 0x46B DUP5 DUP3 DUP6 ADD PUSH2 0x382 JUMP JUMPDEST PUSH1 0x80 DUP4 ADD MSTORE POP SWAP3 SWAP2 POP POP JUMP JUMPDEST PUSH1 0x0 PUSH1 0x20 DUP3 DUP5 SUB SLT ISZERO PUSH2 0x48D JUMPI PUSH2 0x48C PUSH2 0x91 JUMP JUMPDEST JUMPDEST PUSH1 0x0 DUP3 ADD CALLDATALOAD PUSH8 0xFFFFFFFFFFFFFFFF DUP2 GT ISZERO PUSH2 0x4AB JUMPI PUSH2 0x4AA PUSH2 0x96 JUMP JUMPDEST JUMPDEST PUSH2 0x4B7 DUP5 DUP3 DUP6 ADD PUSH2 0x397 JUMP JUMPDEST SWAP2 POP POP SWAP3 SWAP2 POP POP JUMP JUMPDEST PUSH1 0x0 DUP2 MLOAD SWAP1 POP SWAP2 SWAP1 POP JUMP JUMPDEST PUSH1 0x0 DUP3 DUP3 MSTORE PUSH1 0x20 DUP3 ADD SWAP1 POP SWAP3 SWAP2 POP POP JUMP JUMPDEST PUSH1 0x0 JUMPDEST DUP4 DUP2 LT ISZERO PUSH2 0x4FA JUMPI DUP1 DUP3 ADD MLOAD DUP2 DUP5 ADD MSTORE PUSH1 0x20 DUP2 ADD SWAP1 POP PUSH2 0x4DF JUMP JUMPDEST PUSH1 0x0 DUP5 DUP5 ADD MSTORE POP POP POP POP JUMP JUMPDEST PUSH1 0x0 PUSH2 0x511 DUP3 PUSH2 0x4C0 JUMP JUMPDEST PUSH2 0x51B DUP2 DUP6 PUSH2 0x4CB JUMP JUMPDEST SWAP4 POP PUSH2 0x52B DUP2 DUP6 PUSH1 0x20 DUP7 ADD PUSH2 0x4DC JUMP JUMPDEST PUSH2 0x534 DUP2 PUSH2 0xA0 JUMP JUMPDEST DUP5 ADD SWAP2 POP POP SWAP3 SWAP2 POP POP JUMP JUMPDEST PUSH1 0x0 PUSH1 0x20 DUP3 ADD SWAP1 POP DUP2 DUP2 SUB PUSH1 0x0 DUP4 ADD MSTORE PUSH2 0x559 DUP2 DUP5 PUSH2 0x506 JUMP JUMPDEST SWAP1 POP SWAP3 SWAP2 POP POP JUMP JUMPDEST PUSH1 0x0 DUP2 SWAP1 POP SWAP3 SWAP2 POP POP JUMP JUMPDEST PUSH32 0x3C73766720786D6C6E733D22687474703A2F2F7777772E77332E6F72672F3230 PUSH1 0x0 DUP3 ADD MSTORE PUSH32 0x30302F7376672220786D6C6E733A786C696E6B3D22687474703A2F2F7777772E PUSH1 0x20 DUP3 ADD MSTORE PUSH32 0x77332E6F72672F313939392F786C696E6B222076696577426F783D2230203020 PUSH1 0x40 DUP3 ADD MSTORE PUSH32 0x35303020353030223E0000000000000000000000000000000000000000000000 PUSH1 0x60 DUP3 ADD MSTORE POP JUMP JUMPDEST PUSH1 0x0 PUSH2 0x614 PUSH1 0x69 DUP4 PUSH2 0x561 JUMP JUMPDEST SWAP2 POP PUSH2 0x61F DUP3 PUSH2 0x56C JUMP JUMPDEST PUSH1 0x69 DUP3 ADD SWAP1 POP SWAP2 SWAP1 POP JUMP JUMPDEST PUSH32 0x3C2F7376673E0000000000000000000000000000000000000000000000000000 DUP2 MSTORE POP JUMP JUMPDEST PUSH1 0x0 PUSH2 0x65B DUP3 PUSH2 0x607 JUMP JUMPDEST SWAP2 POP PUSH2 0x666 DUP3 PUSH2 0x62A JUMP JUMPDEST PUSH1 0x6 DUP3 ADD SWAP2 POP DUP2 SWAP1 POP SWAP2 SWAP1 POP JUMP INVALID LOG2 PUSH5 0x6970667358 0x22 SLT KECCAK256 0xF6 DUP1 ISZERO 0xAD DUP10 PUSH16 0xF2254E0E3C9060265293631E67BD890F PUSH28 0xFCC3AF6D3EA49BE0A864736F6C634300081200330000000000000000 "
		},
		"gasEstimates": {
			"creation": {
				"codeDepositCost": "341200",
				"executionCost": "380",
				"totalCost": "341580"
			},
			"external": {
				"generate((uint256[],uint256[],string,address,address))": "infinite"
			}
		},
		"methodIdentifiers": {
			"generate((uint256[],uint256[],string,address,address))": "6cf285c8"
		}
	},
	"abi": [
		{
			"inputs": [
				{
					"components": [
						{
							"internalType": "uint256[]",
							"name": "other_data",
							"type": "uint256[]"
						},
						{
							"internalType": "uint256[]",
							"name": "leyers",
							"type": "uint256[]"
						},
						{
							"internalType": "string",
							"name": "base_serial",
							"type": "string"
						},
						{
							"internalType": "contract IRakugakiLayers",
							"name": "layers_database",
							"type": "address"
						},
						{
							"internalType": "contract ISVGGenerator",
							"name": "generator",
							"type": "address"
						}
					],
					"internalType": "struct NFTMeta",
					"name": "meta",
					"type": "tuple"
				}
			],
			"name": "generate",
			"outputs": [
				{
					"internalType": "string",
					"name": "",
					"type": "string"
				}
			],
			"stateMutability": "pure",
			"type": "function"
		}
	]
}