{
	"RakugakiLayers.sol": {
		"RakugakiLayers": {
			"abi": [
				{
					"inputs": [
						{
							"internalType": "uint256",
							"name": "id",
							"type": "uint256"
						},
						{
							"internalType": "string",
							"name": "data",
							"type": "string"
						}
					],
					"name": "addImage",
					"outputs": [],
					"stateMutability": "nonpayable",
					"type": "function"
				},
				{
					"inputs": [
						{
							"internalType": "uint256",
							"name": "id",
							"type": "uint256"
						}
					],
					"name": "getLayer",
					"outputs": [
						{
							"components": [
								{
									"internalType": "string",
									"name": "image",
									"type": "string"
								},
								{
									"internalType": "uint256",
									"name": "timestamp",
									"type": "uint256"
								}
							],
							"internalType": "struct RakugakiLayer",
							"name": "",
							"type": "tuple"
						}
					],
					"stateMutability": "view",
					"type": "function"
				}
			],
			"devdoc": {
				"kind": "dev",
				"methods": {},
				"version": 1
			},
			"evm": {
				"assembly": "    /* \"RakugakiLayers.sol\":74:523  contract RakugakiLayers is IRakugakiLayers {... */\n  mstore(0x40, 0x80)\n  callvalue\n  dup1\n  iszero\n  tag_1\n  jumpi\n  0x00\n  dup1\n  revert\ntag_1:\n  pop\n  dataSize(sub_0)\n  dup1\n  dataOffset(sub_0)\n  0x00\n  codecopy\n  0x00\n  return\nstop\n\nsub_0: assembly {\n        /* \"RakugakiLayers.sol\":74:523  contract RakugakiLayers is IRakugakiLayers {... */\n      mstore(0x40, 0x80)\n      callvalue\n      dup1\n      iszero\n      tag_1\n      jumpi\n      0x00\n      dup1\n      revert\n    tag_1:\n      pop\n      jumpi(tag_2, lt(calldatasize, 0x04))\n      shr(0xe0, calldataload(0x00))\n      dup1\n      0xab2258a2\n      eq\n      tag_3\n      jumpi\n      dup1\n      0xf781e3ae\n      eq\n      tag_4\n      jumpi\n    tag_2:\n      0x00\n      dup1\n      revert\n        /* \"RakugakiLayers.sol\":174:404  function addImage(uint256 id, string calldata data) public {... */\n    tag_3:\n      tag_5\n      0x04\n      dup1\n      calldatasize\n      sub\n      dup2\n      add\n      swap1\n      tag_6\n      swap2\n      swap1\n      tag_7\n      jump\t// in\n    tag_6:\n      tag_8\n      jump\t// in\n    tag_5:\n      stop\n        /* \"RakugakiLayers.sol\":410:521  function getLayer (uint256 id) public view returns (RakugakiLayer memory) {... */\n    tag_4:\n      tag_9\n      0x04\n      dup1\n      calldatasize\n      sub\n      dup2\n      add\n      swap1\n      tag_10\n      swap2\n      swap1\n      tag_11\n      jump\t// in\n    tag_10:\n      tag_12\n      jump\t// in\n    tag_9:\n      mload(0x40)\n      tag_13\n      swap2\n      swap1\n      tag_14\n      jump\t// in\n    tag_13:\n      mload(0x40)\n      dup1\n      swap2\n      sub\n      swap1\n      return\n        /* \"RakugakiLayers.sol\":174:404  function addImage(uint256 id, string calldata data) public {... */\n    tag_8:\n        /* \"RakugakiLayers.sol\":288:289  0 */\n      0x00\n        /* \"RakugakiLayers.sol\":257:266  allLayers */\n      dup1\n        /* \"RakugakiLayers.sol\":257:270  allLayers[id] */\n      0x00\n        /* \"RakugakiLayers.sol\":267:269  id */\n      dup6\n        /* \"RakugakiLayers.sol\":257:270  allLayers[id] */\n      dup2\n      mstore\n      0x20\n      add\n      swap1\n      dup2\n      mstore\n      0x20\n      add\n      0x00\n      keccak256\n        /* \"RakugakiLayers.sol\":257:276  allLayers[id].image */\n      0x00\n      add\n        /* \"RakugakiLayers.sol\":251:284  bytes(allLayers[id].image).length */\n      dup1\n      sload\n      tag_16\n      swap1\n      tag_17\n      jump\t// in\n    tag_16:\n      swap1\n      pop\n        /* \"RakugakiLayers.sol\":251:289  bytes(allLayers[id].image).length == 0 */\n      eq\n        /* \"RakugakiLayers.sol\":243:312  require(bytes(allLayers[id].image).length == 0, \"already registered\") */\n      tag_18\n      jumpi\n      mload(0x40)\n      0x08c379a000000000000000000000000000000000000000000000000000000000\n      dup2\n      mstore\n      0x04\n      add\n      tag_19\n      swap1\n      tag_20\n      jump\t// in\n    tag_19:\n      mload(0x40)\n      dup1\n      swap2\n      sub\n      swap1\n      revert\n    tag_18:\n        /* \"RakugakiLayers.sol\":345:349  data */\n      dup2\n      dup2\n        /* \"RakugakiLayers.sol\":323:332  allLayers */\n      0x00\n        /* \"RakugakiLayers.sol\":323:336  allLayers[id] */\n      dup1\n        /* \"RakugakiLayers.sol\":333:335  id */\n      dup7\n        /* \"RakugakiLayers.sol\":323:336  allLayers[id] */\n      dup2\n      mstore\n      0x20\n      add\n      swap1\n      dup2\n      mstore\n      0x20\n      add\n      0x00\n      keccak256\n        /* \"RakugakiLayers.sol\":323:342  allLayers[id].image */\n      0x00\n      add\n        /* \"RakugakiLayers.sol\":323:349  allLayers[id].image = data */\n      swap2\n      dup3\n      tag_21\n      swap3\n      swap2\n      swap1\n      tag_22\n      jump\t// in\n    tag_21:\n      pop\n        /* \"RakugakiLayers.sol\":385:397  block.number */\n      number\n        /* \"RakugakiLayers.sol\":359:368  allLayers */\n      0x00\n        /* \"RakugakiLayers.sol\":359:372  allLayers[id] */\n      dup1\n        /* \"RakugakiLayers.sol\":369:371  id */\n      dup6\n        /* \"RakugakiLayers.sol\":359:372  allLayers[id] */\n      dup2\n      mstore\n      0x20\n      add\n      swap1\n      dup2\n      mstore\n      0x20\n      add\n      0x00\n      keccak256\n        /* \"RakugakiLayers.sol\":359:382  allLayers[id].timestamp */\n      0x01\n      add\n        /* \"RakugakiLayers.sol\":359:397  allLayers[id].timestamp = block.number */\n      dup2\n      swap1\n      sstore\n      pop\n        /* \"RakugakiLayers.sol\":174:404  function addImage(uint256 id, string calldata data) public {... */\n      pop\n      pop\n      pop\n      jump\t// out\n        /* \"RakugakiLayers.sol\":410:521  function getLayer (uint256 id) public view returns (RakugakiLayer memory) {... */\n    tag_12:\n        /* \"RakugakiLayers.sol\":462:482  RakugakiLayer memory */\n      tag_23\n      tag_24\n      jump\t// in\n    tag_23:\n        /* \"RakugakiLayers.sol\":501:510  allLayers */\n      0x00\n        /* \"RakugakiLayers.sol\":501:514  allLayers[id] */\n      dup1\n        /* \"RakugakiLayers.sol\":511:513  id */\n      dup4\n        /* \"RakugakiLayers.sol\":501:514  allLayers[id] */\n      dup2\n      mstore\n      0x20\n      add\n      swap1\n      dup2\n      mstore\n      0x20\n      add\n      0x00\n      keccak256\n        /* \"RakugakiLayers.sol\":494:514  return allLayers[id] */\n      mload(0x40)\n      dup1\n      0x40\n      add\n      0x40\n      mstore\n      swap1\n      dup2\n      0x00\n      dup3\n      add\n      dup1\n      sload\n      tag_26\n      swap1\n      tag_17\n      jump\t// in\n    tag_26:\n      dup1\n      0x1f\n      add\n      0x20\n      dup1\n      swap2\n      div\n      mul\n      0x20\n      add\n      mload(0x40)\n      swap1\n      dup2\n      add\n      0x40\n      mstore\n      dup1\n      swap3\n      swap2\n      swap1\n      dup2\n      dup2\n      mstore\n      0x20\n      add\n      dup3\n      dup1\n      sload\n      tag_27\n      swap1\n      tag_17\n      jump\t// in\n    tag_27:\n      dup1\n      iszero\n      tag_28\n      jumpi\n      dup1\n      0x1f\n      lt\n      tag_29\n      jumpi\n      0x0100\n      dup1\n      dup4\n      sload\n      div\n      mul\n      dup4\n      mstore\n      swap2\n      0x20\n      add\n      swap2\n      jump(tag_28)\n    tag_29:\n      dup3\n      add\n      swap2\n      swap1\n      0x00\n      mstore\n      keccak256(0x00, 0x20)\n      swap1\n    tag_30:\n      dup2\n      sload\n      dup2\n      mstore\n      swap1\n      0x01\n      add\n      swap1\n      0x20\n      add\n      dup1\n      dup4\n      gt\n      tag_30\n      jumpi\n      dup3\n      swap1\n      sub\n      0x1f\n      and\n      dup3\n      add\n      swap2\n    tag_28:\n      pop\n      pop\n      pop\n      pop\n      pop\n      dup2\n      mstore\n      0x20\n      add\n      0x01\n      dup3\n      add\n      sload\n      dup2\n      mstore\n      pop\n      pop\n      swap1\n      pop\n        /* \"RakugakiLayers.sol\":410:521  function getLayer (uint256 id) public view returns (RakugakiLayer memory) {... */\n      swap2\n      swap1\n      pop\n      jump\t// out\n    tag_24:\n      mload(0x40)\n      dup1\n      0x40\n      add\n      0x40\n      mstore\n      dup1\n      0x60\n      dup2\n      mstore\n      0x20\n      add\n      0x00\n      dup2\n      mstore\n      pop\n      swap1\n      jump\t// out\n        /* \"#utility.yul\":88:205   */\n    tag_32:\n        /* \"#utility.yul\":197:198   */\n      0x00\n        /* \"#utility.yul\":194:195   */\n      dup1\n        /* \"#utility.yul\":187:199   */\n      revert\n        /* \"#utility.yul\":211:328   */\n    tag_33:\n        /* \"#utility.yul\":320:321   */\n      0x00\n        /* \"#utility.yul\":317:318   */\n      dup1\n        /* \"#utility.yul\":310:322   */\n      revert\n        /* \"#utility.yul\":334:411   */\n    tag_34:\n        /* \"#utility.yul\":371:378   */\n      0x00\n        /* \"#utility.yul\":400:405   */\n      dup2\n        /* \"#utility.yul\":389:405   */\n      swap1\n      pop\n        /* \"#utility.yul\":334:411   */\n      swap2\n      swap1\n      pop\n      jump\t// out\n        /* \"#utility.yul\":417:539   */\n    tag_35:\n        /* \"#utility.yul\":490:514   */\n      tag_75\n        /* \"#utility.yul\":508:513   */\n      dup2\n        /* \"#utility.yul\":490:514   */\n      tag_34\n      jump\t// in\n    tag_75:\n        /* \"#utility.yul\":483:488   */\n      dup2\n        /* \"#utility.yul\":480:515   */\n      eq\n        /* \"#utility.yul\":470:533   */\n      tag_76\n      jumpi\n        /* \"#utility.yul\":529:530   */\n      0x00\n        /* \"#utility.yul\":526:527   */\n      dup1\n        /* \"#utility.yul\":519:531   */\n      revert\n        /* \"#utility.yul\":470:533   */\n    tag_76:\n        /* \"#utility.yul\":417:539   */\n      pop\n      jump\t// out\n        /* \"#utility.yul\":545:684   */\n    tag_36:\n        /* \"#utility.yul\":591:596   */\n      0x00\n        /* \"#utility.yul\":629:635   */\n      dup2\n        /* \"#utility.yul\":616:636   */\n      calldataload\n        /* \"#utility.yul\":607:636   */\n      swap1\n      pop\n        /* \"#utility.yul\":645:678   */\n      tag_78\n        /* \"#utility.yul\":672:677   */\n      dup2\n        /* \"#utility.yul\":645:678   */\n      tag_35\n      jump\t// in\n    tag_78:\n        /* \"#utility.yul\":545:684   */\n      swap3\n      swap2\n      pop\n      pop\n      jump\t// out\n        /* \"#utility.yul\":690:807   */\n    tag_37:\n        /* \"#utility.yul\":799:800   */\n      0x00\n        /* \"#utility.yul\":796:797   */\n      dup1\n        /* \"#utility.yul\":789:801   */\n      revert\n        /* \"#utility.yul\":813:930   */\n    tag_38:\n        /* \"#utility.yul\":922:923   */\n      0x00\n        /* \"#utility.yul\":919:920   */\n      dup1\n        /* \"#utility.yul\":912:924   */\n      revert\n        /* \"#utility.yul\":936:1053   */\n    tag_39:\n        /* \"#utility.yul\":1045:1046   */\n      0x00\n        /* \"#utility.yul\":1042:1043   */\n      dup1\n        /* \"#utility.yul\":1035:1047   */\n      revert\n        /* \"#utility.yul\":1073:1626   */\n    tag_40:\n        /* \"#utility.yul\":1131:1139   */\n      0x00\n        /* \"#utility.yul\":1141:1147   */\n      dup1\n        /* \"#utility.yul\":1191:1194   */\n      dup4\n        /* \"#utility.yul\":1184:1188   */\n      0x1f\n        /* \"#utility.yul\":1176:1182   */\n      dup5\n        /* \"#utility.yul\":1172:1189   */\n      add\n        /* \"#utility.yul\":1168:1195   */\n      slt\n        /* \"#utility.yul\":1158:1280   */\n      tag_83\n      jumpi\n        /* \"#utility.yul\":1199:1278   */\n      tag_84\n      tag_37\n      jump\t// in\n    tag_84:\n        /* \"#utility.yul\":1158:1280   */\n    tag_83:\n        /* \"#utility.yul\":1312:1318   */\n      dup3\n        /* \"#utility.yul\":1299:1319   */\n      calldataload\n        /* \"#utility.yul\":1289:1319   */\n      swap1\n      pop\n        /* \"#utility.yul\":1342:1360   */\n      0xffffffffffffffff\n        /* \"#utility.yul\":1334:1340   */\n      dup2\n        /* \"#utility.yul\":1331:1361   */\n      gt\n        /* \"#utility.yul\":1328:1445   */\n      iszero\n      tag_85\n      jumpi\n        /* \"#utility.yul\":1364:1443   */\n      tag_86\n      tag_38\n      jump\t// in\n    tag_86:\n        /* \"#utility.yul\":1328:1445   */\n    tag_85:\n        /* \"#utility.yul\":1478:1482   */\n      0x20\n        /* \"#utility.yul\":1470:1476   */\n      dup4\n        /* \"#utility.yul\":1466:1483   */\n      add\n        /* \"#utility.yul\":1454:1483   */\n      swap2\n      pop\n        /* \"#utility.yul\":1532:1535   */\n      dup4\n        /* \"#utility.yul\":1524:1528   */\n      0x01\n        /* \"#utility.yul\":1516:1522   */\n      dup3\n        /* \"#utility.yul\":1512:1529   */\n      mul\n        /* \"#utility.yul\":1502:1510   */\n      dup4\n        /* \"#utility.yul\":1498:1530   */\n      add\n        /* \"#utility.yul\":1495:1536   */\n      gt\n        /* \"#utility.yul\":1492:1620   */\n      iszero\n      tag_87\n      jumpi\n        /* \"#utility.yul\":1539:1618   */\n      tag_88\n      tag_39\n      jump\t// in\n    tag_88:\n        /* \"#utility.yul\":1492:1620   */\n    tag_87:\n        /* \"#utility.yul\":1073:1626   */\n      swap3\n      pop\n      swap3\n      swap1\n      pop\n      jump\t// out\n        /* \"#utility.yul\":1632:2306   */\n    tag_7:\n        /* \"#utility.yul\":1712:1718   */\n      0x00\n        /* \"#utility.yul\":1720:1726   */\n      dup1\n        /* \"#utility.yul\":1728:1734   */\n      0x00\n        /* \"#utility.yul\":1777:1779   */\n      0x40\n        /* \"#utility.yul\":1765:1774   */\n      dup5\n        /* \"#utility.yul\":1756:1763   */\n      dup7\n        /* \"#utility.yul\":1752:1775   */\n      sub\n        /* \"#utility.yul\":1748:1780   */\n      slt\n        /* \"#utility.yul\":1745:1864   */\n      iszero\n      tag_90\n      jumpi\n        /* \"#utility.yul\":1783:1862   */\n      tag_91\n      tag_32\n      jump\t// in\n    tag_91:\n        /* \"#utility.yul\":1745:1864   */\n    tag_90:\n        /* \"#utility.yul\":1903:1904   */\n      0x00\n        /* \"#utility.yul\":1928:1981   */\n      tag_92\n        /* \"#utility.yul\":1973:1980   */\n      dup7\n        /* \"#utility.yul\":1964:1970   */\n      dup3\n        /* \"#utility.yul\":1953:1962   */\n      dup8\n        /* \"#utility.yul\":1949:1971   */\n      add\n        /* \"#utility.yul\":1928:1981   */\n      tag_36\n      jump\t// in\n    tag_92:\n        /* \"#utility.yul\":1918:1981   */\n      swap4\n      pop\n        /* \"#utility.yul\":1874:1991   */\n      pop\n        /* \"#utility.yul\":2058:2060   */\n      0x20\n        /* \"#utility.yul\":2047:2056   */\n      dup5\n        /* \"#utility.yul\":2043:2061   */\n      add\n        /* \"#utility.yul\":2030:2062   */\n      calldataload\n        /* \"#utility.yul\":2089:2107   */\n      0xffffffffffffffff\n        /* \"#utility.yul\":2081:2087   */\n      dup2\n        /* \"#utility.yul\":2078:2108   */\n      gt\n        /* \"#utility.yul\":2075:2192   */\n      iszero\n      tag_93\n      jumpi\n        /* \"#utility.yul\":2111:2190   */\n      tag_94\n      tag_33\n      jump\t// in\n    tag_94:\n        /* \"#utility.yul\":2075:2192   */\n    tag_93:\n        /* \"#utility.yul\":2224:2289   */\n      tag_95\n        /* \"#utility.yul\":2281:2288   */\n      dup7\n        /* \"#utility.yul\":2272:2278   */\n      dup3\n        /* \"#utility.yul\":2261:2270   */\n      dup8\n        /* \"#utility.yul\":2257:2279   */\n      add\n        /* \"#utility.yul\":2224:2289   */\n      tag_40\n      jump\t// in\n    tag_95:\n        /* \"#utility.yul\":2206:2289   */\n      swap3\n      pop\n      swap3\n      pop\n        /* \"#utility.yul\":2001:2299   */\n      pop\n        /* \"#utility.yul\":1632:2306   */\n      swap3\n      pop\n      swap3\n      pop\n      swap3\n      jump\t// out\n        /* \"#utility.yul\":2312:2641   */\n    tag_11:\n        /* \"#utility.yul\":2371:2377   */\n      0x00\n        /* \"#utility.yul\":2420:2422   */\n      0x20\n        /* \"#utility.yul\":2408:2417   */\n      dup3\n        /* \"#utility.yul\":2399:2406   */\n      dup5\n        /* \"#utility.yul\":2395:2418   */\n      sub\n        /* \"#utility.yul\":2391:2423   */\n      slt\n        /* \"#utility.yul\":2388:2507   */\n      iszero\n      tag_97\n      jumpi\n        /* \"#utility.yul\":2426:2505   */\n      tag_98\n      tag_32\n      jump\t// in\n    tag_98:\n        /* \"#utility.yul\":2388:2507   */\n    tag_97:\n        /* \"#utility.yul\":2546:2547   */\n      0x00\n        /* \"#utility.yul\":2571:2624   */\n      tag_99\n        /* \"#utility.yul\":2616:2623   */\n      dup5\n        /* \"#utility.yul\":2607:2613   */\n      dup3\n        /* \"#utility.yul\":2596:2605   */\n      dup6\n        /* \"#utility.yul\":2592:2614   */\n      add\n        /* \"#utility.yul\":2571:2624   */\n      tag_36\n      jump\t// in\n    tag_99:\n        /* \"#utility.yul\":2561:2624   */\n      swap2\n      pop\n        /* \"#utility.yul\":2517:2634   */\n      pop\n        /* \"#utility.yul\":2312:2641   */\n      swap3\n      swap2\n      pop\n      pop\n      jump\t// out\n        /* \"#utility.yul\":2647:2746   */\n    tag_41:\n        /* \"#utility.yul\":2699:2705   */\n      0x00\n        /* \"#utility.yul\":2733:2738   */\n      dup2\n        /* \"#utility.yul\":2727:2739   */\n      mload\n        /* \"#utility.yul\":2717:2739   */\n      swap1\n      pop\n        /* \"#utility.yul\":2647:2746   */\n      swap2\n      swap1\n      pop\n      jump\t// out\n        /* \"#utility.yul\":2752:2911   */\n    tag_42:\n        /* \"#utility.yul\":2826:2837   */\n      0x00\n        /* \"#utility.yul\":2860:2866   */\n      dup3\n        /* \"#utility.yul\":2855:2858   */\n      dup3\n        /* \"#utility.yul\":2848:2867   */\n      mstore\n        /* \"#utility.yul\":2900:2904   */\n      0x20\n        /* \"#utility.yul\":2895:2898   */\n      dup3\n        /* \"#utility.yul\":2891:2905   */\n      add\n        /* \"#utility.yul\":2876:2905   */\n      swap1\n      pop\n        /* \"#utility.yul\":2752:2911   */\n      swap3\n      swap2\n      pop\n      pop\n      jump\t// out\n        /* \"#utility.yul\":2917:3165   */\n    tag_43:\n        /* \"#utility.yul\":2999:3000   */\n      0x00\n        /* \"#utility.yul\":3009:3122   */\n    tag_103:\n        /* \"#utility.yul\":3023:3029   */\n      dup4\n        /* \"#utility.yul\":3020:3021   */\n      dup2\n        /* \"#utility.yul\":3017:3030   */\n      lt\n        /* \"#utility.yul\":3009:3122   */\n      iszero\n      tag_105\n      jumpi\n        /* \"#utility.yul\":3108:3109   */\n      dup1\n        /* \"#utility.yul\":3103:3106   */\n      dup3\n        /* \"#utility.yul\":3099:3110   */\n      add\n        /* \"#utility.yul\":3093:3111   */\n      mload\n        /* \"#utility.yul\":3089:3090   */\n      dup2\n        /* \"#utility.yul\":3084:3087   */\n      dup5\n        /* \"#utility.yul\":3080:3091   */\n      add\n        /* \"#utility.yul\":3073:3112   */\n      mstore\n        /* \"#utility.yul\":3045:3047   */\n      0x20\n        /* \"#utility.yul\":3042:3043   */\n      dup2\n        /* \"#utility.yul\":3038:3048   */\n      add\n        /* \"#utility.yul\":3033:3048   */\n      swap1\n      pop\n        /* \"#utility.yul\":3009:3122   */\n      jump(tag_103)\n    tag_105:\n        /* \"#utility.yul\":3156:3157   */\n      0x00\n        /* \"#utility.yul\":3147:3153   */\n      dup5\n        /* \"#utility.yul\":3142:3145   */\n      dup5\n        /* \"#utility.yul\":3138:3154   */\n      add\n        /* \"#utility.yul\":3131:3158   */\n      mstore\n        /* \"#utility.yul\":2979:3165   */\n      pop\n        /* \"#utility.yul\":2917:3165   */\n      pop\n      pop\n      pop\n      jump\t// out\n        /* \"#utility.yul\":3171:3273   */\n    tag_44:\n        /* \"#utility.yul\":3212:3218   */\n      0x00\n        /* \"#utility.yul\":3263:3265   */\n      0x1f\n        /* \"#utility.yul\":3259:3266   */\n      not\n        /* \"#utility.yul\":3254:3256   */\n      0x1f\n        /* \"#utility.yul\":3247:3252   */\n      dup4\n        /* \"#utility.yul\":3243:3257   */\n      add\n        /* \"#utility.yul\":3239:3267   */\n      and\n        /* \"#utility.yul\":3229:3267   */\n      swap1\n      pop\n        /* \"#utility.yul\":3171:3273   */\n      swap2\n      swap1\n      pop\n      jump\t// out\n        /* \"#utility.yul\":3279:3636   */\n    tag_45:\n        /* \"#utility.yul\":3357:3360   */\n      0x00\n        /* \"#utility.yul\":3385:3424   */\n      tag_108\n        /* \"#utility.yul\":3418:3423   */\n      dup3\n        /* \"#utility.yul\":3385:3424   */\n      tag_41\n      jump\t// in\n    tag_108:\n        /* \"#utility.yul\":3440:3501   */\n      tag_109\n        /* \"#utility.yul\":3494:3500   */\n      dup2\n        /* \"#utility.yul\":3489:3492   */\n      dup6\n        /* \"#utility.yul\":3440:3501   */\n      tag_42\n      jump\t// in\n    tag_109:\n        /* \"#utility.yul\":3433:3501   */\n      swap4\n      pop\n        /* \"#utility.yul\":3510:3575   */\n      tag_110\n        /* \"#utility.yul\":3568:3574   */\n      dup2\n        /* \"#utility.yul\":3563:3566   */\n      dup6\n        /* \"#utility.yul\":3556:3560   */\n      0x20\n        /* \"#utility.yul\":3549:3554   */\n      dup7\n        /* \"#utility.yul\":3545:3561   */\n      add\n        /* \"#utility.yul\":3510:3575   */\n      tag_43\n      jump\t// in\n    tag_110:\n        /* \"#utility.yul\":3600:3629   */\n      tag_111\n        /* \"#utility.yul\":3622:3628   */\n      dup2\n        /* \"#utility.yul\":3600:3629   */\n      tag_44\n      jump\t// in\n    tag_111:\n        /* \"#utility.yul\":3595:3598   */\n      dup5\n        /* \"#utility.yul\":3591:3630   */\n      add\n        /* \"#utility.yul\":3584:3630   */\n      swap2\n      pop\n        /* \"#utility.yul\":3361:3636   */\n      pop\n        /* \"#utility.yul\":3279:3636   */\n      swap3\n      swap2\n      pop\n      pop\n      jump\t// out\n        /* \"#utility.yul\":3642:3750   */\n    tag_46:\n        /* \"#utility.yul\":3719:3743   */\n      tag_113\n        /* \"#utility.yul\":3737:3742   */\n      dup2\n        /* \"#utility.yul\":3719:3743   */\n      tag_34\n      jump\t// in\n    tag_113:\n        /* \"#utility.yul\":3714:3717   */\n      dup3\n        /* \"#utility.yul\":3707:3744   */\n      mstore\n        /* \"#utility.yul\":3642:3750   */\n      pop\n      pop\n      jump\t// out\n        /* \"#utility.yul\":3808:4428   */\n    tag_47:\n        /* \"#utility.yul\":3935:3938   */\n      0x00\n        /* \"#utility.yul\":3971:3975   */\n      0x40\n        /* \"#utility.yul\":3966:3969   */\n      dup4\n        /* \"#utility.yul\":3962:3976   */\n      add\n        /* \"#utility.yul\":4059:4063   */\n      0x00\n        /* \"#utility.yul\":4052:4057   */\n      dup4\n        /* \"#utility.yul\":4048:4064   */\n      add\n        /* \"#utility.yul\":4042:4065   */\n      mload\n        /* \"#utility.yul\":4112:4115   */\n      dup5\n        /* \"#utility.yul\":4106:4110   */\n      dup3\n        /* \"#utility.yul\":4102:4116   */\n      sub\n        /* \"#utility.yul\":4095:4099   */\n      0x00\n        /* \"#utility.yul\":4090:4093   */\n      dup7\n        /* \"#utility.yul\":4086:4100   */\n      add\n        /* \"#utility.yul\":4079:4117   */\n      mstore\n        /* \"#utility.yul\":4138:4211   */\n      tag_115\n        /* \"#utility.yul\":4206:4210   */\n      dup3\n        /* \"#utility.yul\":4192:4204   */\n      dup3\n        /* \"#utility.yul\":4138:4211   */\n      tag_45\n      jump\t// in\n    tag_115:\n        /* \"#utility.yul\":4130:4211   */\n      swap2\n      pop\n        /* \"#utility.yul\":3986:4222   */\n      pop\n        /* \"#utility.yul\":4309:4313   */\n      0x20\n        /* \"#utility.yul\":4302:4307   */\n      dup4\n        /* \"#utility.yul\":4298:4314   */\n      add\n        /* \"#utility.yul\":4292:4315   */\n      mload\n        /* \"#utility.yul\":4328:4391   */\n      tag_116\n        /* \"#utility.yul\":4385:4389   */\n      0x20\n        /* \"#utility.yul\":4380:4383   */\n      dup7\n        /* \"#utility.yul\":4376:4390   */\n      add\n        /* \"#utility.yul\":4362:4374   */\n      dup3\n        /* \"#utility.yul\":4328:4391   */\n      tag_46\n      jump\t// in\n    tag_116:\n        /* \"#utility.yul\":4232:4401   */\n      pop\n        /* \"#utility.yul\":4418:4422   */\n      dup1\n        /* \"#utility.yul\":4411:4422   */\n      swap2\n      pop\n        /* \"#utility.yul\":3940:4428   */\n      pop\n        /* \"#utility.yul\":3808:4428   */\n      swap3\n      swap2\n      pop\n      pop\n      jump\t// out\n        /* \"#utility.yul\":4434:4823   */\n    tag_14:\n        /* \"#utility.yul\":4585:4589   */\n      0x00\n        /* \"#utility.yul\":4623:4625   */\n      0x20\n        /* \"#utility.yul\":4612:4621   */\n      dup3\n        /* \"#utility.yul\":4608:4626   */\n      add\n        /* \"#utility.yul\":4600:4626   */\n      swap1\n      pop\n        /* \"#utility.yul\":4672:4681   */\n      dup2\n        /* \"#utility.yul\":4666:4670   */\n      dup2\n        /* \"#utility.yul\":4662:4682   */\n      sub\n        /* \"#utility.yul\":4658:4659   */\n      0x00\n        /* \"#utility.yul\":4647:4656   */\n      dup4\n        /* \"#utility.yul\":4643:4660   */\n      add\n        /* \"#utility.yul\":4636:4683   */\n      mstore\n        /* \"#utility.yul\":4700:4816   */\n      tag_118\n        /* \"#utility.yul\":4811:4815   */\n      dup2\n        /* \"#utility.yul\":4802:4808   */\n      dup5\n        /* \"#utility.yul\":4700:4816   */\n      tag_47\n      jump\t// in\n    tag_118:\n        /* \"#utility.yul\":4692:4816   */\n      swap1\n      pop\n        /* \"#utility.yul\":4434:4823   */\n      swap3\n      swap2\n      pop\n      pop\n      jump\t// out\n        /* \"#utility.yul\":4829:5009   */\n    tag_48:\n        /* \"#utility.yul\":4877:4954   */\n      0x4e487b7100000000000000000000000000000000000000000000000000000000\n        /* \"#utility.yul\":4874:4875   */\n      0x00\n        /* \"#utility.yul\":4867:4955   */\n      mstore\n        /* \"#utility.yul\":4974:4978   */\n      0x22\n        /* \"#utility.yul\":4971:4972   */\n      0x04\n        /* \"#utility.yul\":4964:4979   */\n      mstore\n        /* \"#utility.yul\":4998:5002   */\n      0x24\n        /* \"#utility.yul\":4995:4996   */\n      0x00\n        /* \"#utility.yul\":4988:5003   */\n      revert\n        /* \"#utility.yul\":5015:5335   */\n    tag_17:\n        /* \"#utility.yul\":5059:5065   */\n      0x00\n        /* \"#utility.yul\":5096:5097   */\n      0x02\n        /* \"#utility.yul\":5090:5094   */\n      dup3\n        /* \"#utility.yul\":5086:5098   */\n      div\n        /* \"#utility.yul\":5076:5098   */\n      swap1\n      pop\n        /* \"#utility.yul\":5143:5144   */\n      0x01\n        /* \"#utility.yul\":5137:5141   */\n      dup3\n        /* \"#utility.yul\":5133:5145   */\n      and\n        /* \"#utility.yul\":5164:5182   */\n      dup1\n        /* \"#utility.yul\":5154:5235   */\n      tag_121\n      jumpi\n        /* \"#utility.yul\":5220:5224   */\n      0x7f\n        /* \"#utility.yul\":5212:5218   */\n      dup3\n        /* \"#utility.yul\":5208:5225   */\n      and\n        /* \"#utility.yul\":5198:5225   */\n      swap2\n      pop\n        /* \"#utility.yul\":5154:5235   */\n    tag_121:\n        /* \"#utility.yul\":5282:5284   */\n      0x20\n        /* \"#utility.yul\":5274:5280   */\n      dup3\n        /* \"#utility.yul\":5271:5285   */\n      lt\n        /* \"#utility.yul\":5251:5269   */\n      dup2\n        /* \"#utility.yul\":5248:5286   */\n      sub\n        /* \"#utility.yul\":5245:5329   */\n      tag_122\n      jumpi\n        /* \"#utility.yul\":5301:5319   */\n      tag_123\n      tag_48\n      jump\t// in\n    tag_123:\n        /* \"#utility.yul\":5245:5329   */\n    tag_122:\n        /* \"#utility.yul\":5066:5335   */\n      pop\n        /* \"#utility.yul\":5015:5335   */\n      swap2\n      swap1\n      pop\n      jump\t// out\n        /* \"#utility.yul\":5341:5510   */\n    tag_49:\n        /* \"#utility.yul\":5425:5436   */\n      0x00\n        /* \"#utility.yul\":5459:5465   */\n      dup3\n        /* \"#utility.yul\":5454:5457   */\n      dup3\n        /* \"#utility.yul\":5447:5466   */\n      mstore\n        /* \"#utility.yul\":5499:5503   */\n      0x20\n        /* \"#utility.yul\":5494:5497   */\n      dup3\n        /* \"#utility.yul\":5490:5504   */\n      add\n        /* \"#utility.yul\":5475:5504   */\n      swap1\n      pop\n        /* \"#utility.yul\":5341:5510   */\n      swap3\n      swap2\n      pop\n      pop\n      jump\t// out\n        /* \"#utility.yul\":5516:5684   */\n    tag_50:\n        /* \"#utility.yul\":5656:5676   */\n      0x616c726561647920726567697374657265640000000000000000000000000000\n        /* \"#utility.yul\":5652:5653   */\n      0x00\n        /* \"#utility.yul\":5644:5650   */\n      dup3\n        /* \"#utility.yul\":5640:5654   */\n      add\n        /* \"#utility.yul\":5633:5677   */\n      mstore\n        /* \"#utility.yul\":5516:5684   */\n      pop\n      jump\t// out\n        /* \"#utility.yul\":5690:6056   */\n    tag_51:\n        /* \"#utility.yul\":5832:5835   */\n      0x00\n        /* \"#utility.yul\":5853:5920   */\n      tag_127\n        /* \"#utility.yul\":5917:5919   */\n      0x12\n        /* \"#utility.yul\":5912:5915   */\n      dup4\n        /* \"#utility.yul\":5853:5920   */\n      tag_49\n      jump\t// in\n    tag_127:\n        /* \"#utility.yul\":5846:5920   */\n      swap2\n      pop\n        /* \"#utility.yul\":5929:6022   */\n      tag_128\n        /* \"#utility.yul\":6018:6021   */\n      dup3\n        /* \"#utility.yul\":5929:6022   */\n      tag_50\n      jump\t// in\n    tag_128:\n        /* \"#utility.yul\":6047:6049   */\n      0x20\n        /* \"#utility.yul\":6042:6045   */\n      dup3\n        /* \"#utility.yul\":6038:6050   */\n      add\n        /* \"#utility.yul\":6031:6050   */\n      swap1\n      pop\n        /* \"#utility.yul\":5690:6056   */\n      swap2\n      swap1\n      pop\n      jump\t// out\n        /* \"#utility.yul\":6062:6481   */\n    tag_20:\n        /* \"#utility.yul\":6228:6232   */\n      0x00\n        /* \"#utility.yul\":6266:6268   */\n      0x20\n        /* \"#utility.yul\":6255:6264   */\n      dup3\n        /* \"#utility.yul\":6251:6269   */\n      add\n        /* \"#utility.yul\":6243:6269   */\n      swap1\n      pop\n        /* \"#utility.yul\":6315:6324   */\n      dup2\n        /* \"#utility.yul\":6309:6313   */\n      dup2\n        /* \"#utility.yul\":6305:6325   */\n      sub\n        /* \"#utility.yul\":6301:6302   */\n      0x00\n        /* \"#utility.yul\":6290:6299   */\n      dup4\n        /* \"#utility.yul\":6286:6303   */\n      add\n        /* \"#utility.yul\":6279:6326   */\n      mstore\n        /* \"#utility.yul\":6343:6474   */\n      tag_130\n        /* \"#utility.yul\":6469:6473   */\n      dup2\n        /* \"#utility.yul\":6343:6474   */\n      tag_51\n      jump\t// in\n    tag_130:\n        /* \"#utility.yul\":6335:6474   */\n      swap1\n      pop\n        /* \"#utility.yul\":6062:6481   */\n      swap2\n      swap1\n      pop\n      jump\t// out\n        /* \"#utility.yul\":6487:6584   */\n    tag_52:\n        /* \"#utility.yul\":6546:6552   */\n      0x00\n        /* \"#utility.yul\":6574:6577   */\n      dup3\n        /* \"#utility.yul\":6564:6577   */\n      swap1\n      pop\n        /* \"#utility.yul\":6487:6584   */\n      swap3\n      swap2\n      pop\n      pop\n      jump\t// out\n        /* \"#utility.yul\":6590:6770   */\n    tag_53:\n        /* \"#utility.yul\":6638:6715   */\n      0x4e487b7100000000000000000000000000000000000000000000000000000000\n        /* \"#utility.yul\":6635:6636   */\n      0x00\n        /* \"#utility.yul\":6628:6716   */\n      mstore\n        /* \"#utility.yul\":6735:6739   */\n      0x41\n        /* \"#utility.yul\":6732:6733   */\n      0x04\n        /* \"#utility.yul\":6725:6740   */\n      mstore\n        /* \"#utility.yul\":6759:6763   */\n      0x24\n        /* \"#utility.yul\":6756:6757   */\n      0x00\n        /* \"#utility.yul\":6749:6764   */\n      revert\n        /* \"#utility.yul\":6776:6917   */\n    tag_54:\n        /* \"#utility.yul\":6825:6829   */\n      0x00\n        /* \"#utility.yul\":6848:6851   */\n      dup2\n        /* \"#utility.yul\":6840:6851   */\n      swap1\n      pop\n        /* \"#utility.yul\":6871:6874   */\n      dup2\n        /* \"#utility.yul\":6868:6869   */\n      0x00\n        /* \"#utility.yul\":6861:6875   */\n      mstore\n        /* \"#utility.yul\":6905:6909   */\n      0x20\n        /* \"#utility.yul\":6902:6903   */\n      0x00\n        /* \"#utility.yul\":6892:6910   */\n      keccak256\n        /* \"#utility.yul\":6884:6910   */\n      swap1\n      pop\n        /* \"#utility.yul\":6776:6917   */\n      swap2\n      swap1\n      pop\n      jump\t// out\n        /* \"#utility.yul\":6923:7016   */\n    tag_55:\n        /* \"#utility.yul\":6960:6966   */\n      0x00\n        /* \"#utility.yul\":7007:7009   */\n      0x20\n        /* \"#utility.yul\":7002:7004   */\n      0x1f\n        /* \"#utility.yul\":6995:7000   */\n      dup4\n        /* \"#utility.yul\":6991:7005   */\n      add\n        /* \"#utility.yul\":6987:7010   */\n      div\n        /* \"#utility.yul\":6977:7010   */\n      swap1\n      pop\n        /* \"#utility.yul\":6923:7016   */\n      swap2\n      swap1\n      pop\n      jump\t// out\n        /* \"#utility.yul\":7022:7129   */\n    tag_56:\n        /* \"#utility.yul\":7066:7074   */\n      0x00\n        /* \"#utility.yul\":7116:7121   */\n      dup3\n        /* \"#utility.yul\":7110:7114   */\n      dup3\n        /* \"#utility.yul\":7106:7122   */\n      shl\n        /* \"#utility.yul\":7085:7122   */\n      swap1\n      pop\n        /* \"#utility.yul\":7022:7129   */\n      swap3\n      swap2\n      pop\n      pop\n      jump\t// out\n        /* \"#utility.yul\":7135:7528   */\n    tag_57:\n        /* \"#utility.yul\":7204:7210   */\n      0x00\n        /* \"#utility.yul\":7254:7255   */\n      0x08\n        /* \"#utility.yul\":7242:7252   */\n      dup4\n        /* \"#utility.yul\":7238:7256   */\n      mul\n        /* \"#utility.yul\":7277:7374   */\n      tag_137\n        /* \"#utility.yul\":7307:7373   */\n      0xffffffffffffffffffffffffffffffffffffffffffffffffffffffffffffffff\n        /* \"#utility.yul\":7296:7305   */\n      dup3\n        /* \"#utility.yul\":7277:7374   */\n      tag_56\n      jump\t// in\n    tag_137:\n        /* \"#utility.yul\":7395:7434   */\n      tag_138\n        /* \"#utility.yul\":7425:7433   */\n      dup7\n        /* \"#utility.yul\":7414:7423   */\n      dup4\n        /* \"#utility.yul\":7395:7434   */\n      tag_56\n      jump\t// in\n    tag_138:\n        /* \"#utility.yul\":7383:7434   */\n      swap6\n      pop\n        /* \"#utility.yul\":7467:7471   */\n      dup1\n        /* \"#utility.yul\":7463:7472   */\n      not\n        /* \"#utility.yul\":7456:7461   */\n      dup5\n        /* \"#utility.yul\":7452:7473   */\n      and\n        /* \"#utility.yul\":7443:7473   */\n      swap4\n      pop\n        /* \"#utility.yul\":7516:7520   */\n      dup1\n        /* \"#utility.yul\":7506:7514   */\n      dup7\n        /* \"#utility.yul\":7502:7521   */\n      and\n        /* \"#utility.yul\":7495:7500   */\n      dup5\n        /* \"#utility.yul\":7492:7522   */\n      or\n        /* \"#utility.yul\":7482:7522   */\n      swap3\n      pop\n        /* \"#utility.yul\":7211:7528   */\n      pop\n      pop\n        /* \"#utility.yul\":7135:7528   */\n      swap4\n      swap3\n      pop\n      pop\n      pop\n      jump\t// out\n        /* \"#utility.yul\":7534:7594   */\n    tag_58:\n        /* \"#utility.yul\":7562:7565   */\n      0x00\n        /* \"#utility.yul\":7583:7588   */\n      dup2\n        /* \"#utility.yul\":7576:7588   */\n      swap1\n      pop\n        /* \"#utility.yul\":7534:7594   */\n      swap2\n      swap1\n      pop\n      jump\t// out\n        /* \"#utility.yul\":7600:7742   */\n    tag_59:\n        /* \"#utility.yul\":7650:7659   */\n      0x00\n        /* \"#utility.yul\":7683:7736   */\n      tag_141\n        /* \"#utility.yul\":7701:7735   */\n      tag_142\n        /* \"#utility.yul\":7710:7734   */\n      tag_143\n        /* \"#utility.yul\":7728:7733   */\n      dup5\n        /* \"#utility.yul\":7710:7734   */\n      tag_34\n      jump\t// in\n    tag_143:\n        /* \"#utility.yul\":7701:7735   */\n      tag_58\n      jump\t// in\n    tag_142:\n        /* \"#utility.yul\":7683:7736   */\n      tag_34\n      jump\t// in\n    tag_141:\n        /* \"#utility.yul\":7670:7736   */\n      swap1\n      pop\n        /* \"#utility.yul\":7600:7742   */\n      swap2\n      swap1\n      pop\n      jump\t// out\n        /* \"#utility.yul\":7748:7823   */\n    tag_60:\n        /* \"#utility.yul\":7791:7794   */\n      0x00\n        /* \"#utility.yul\":7812:7817   */\n      dup2\n        /* \"#utility.yul\":7805:7817   */\n      swap1\n      pop\n        /* \"#utility.yul\":7748:7823   */\n      swap2\n      swap1\n      pop\n      jump\t// out\n        /* \"#utility.yul\":7829:8098   */\n    tag_61:\n        /* \"#utility.yul\":7939:7978   */\n      tag_146\n        /* \"#utility.yul\":7970:7977   */\n      dup4\n        /* \"#utility.yul\":7939:7978   */\n      tag_59\n      jump\t// in\n    tag_146:\n        /* \"#utility.yul\":8000:8091   */\n      tag_147\n        /* \"#utility.yul\":8049:8090   */\n      tag_148\n        /* \"#utility.yul\":8073:8089   */\n      dup3\n        /* \"#utility.yul\":8049:8090   */\n      tag_60\n      jump\t// in\n    tag_148:\n        /* \"#utility.yul\":8041:8047   */\n      dup5\n        /* \"#utility.yul\":8034:8038   */\n      dup5\n        /* \"#utility.yul\":8028:8039   */\n      sload\n        /* \"#utility.yul\":8000:8091   */\n      tag_57\n      jump\t// in\n    tag_147:\n        /* \"#utility.yul\":7994:7998   */\n      dup3\n        /* \"#utility.yul\":7987:8092   */\n      sstore\n        /* \"#utility.yul\":7905:8098   */\n      pop\n        /* \"#utility.yul\":7829:8098   */\n      pop\n      pop\n      pop\n      jump\t// out\n        /* \"#utility.yul\":8104:8177   */\n    tag_62:\n        /* \"#utility.yul\":8149:8152   */\n      0x00\n        /* \"#utility.yul\":8104:8177   */\n      swap1\n      jump\t// out\n        /* \"#utility.yul\":8183:8372   */\n    tag_63:\n        /* \"#utility.yul\":8260:8292   */\n      tag_151\n      tag_62\n      jump\t// in\n    tag_151:\n        /* \"#utility.yul\":8301:8366   */\n      tag_152\n        /* \"#utility.yul\":8359:8365   */\n      dup2\n        /* \"#utility.yul\":8351:8357   */\n      dup5\n        /* \"#utility.yul\":8345:8349   */\n      dup5\n        /* \"#utility.yul\":8301:8366   */\n      tag_61\n      jump\t// in\n    tag_152:\n        /* \"#utility.yul\":8236:8372   */\n      pop\n        /* \"#utility.yul\":8183:8372   */\n      pop\n      pop\n      jump\t// out\n        /* \"#utility.yul\":8378:8564   */\n    tag_64:\n        /* \"#utility.yul\":8438:8558   */\n    tag_154:\n        /* \"#utility.yul\":8455:8458   */\n      dup2\n        /* \"#utility.yul\":8448:8453   */\n      dup2\n        /* \"#utility.yul\":8445:8459   */\n      lt\n        /* \"#utility.yul\":8438:8558   */\n      iszero\n      tag_156\n      jumpi\n        /* \"#utility.yul\":8509:8548   */\n      tag_157\n        /* \"#utility.yul\":8546:8547   */\n      0x00\n        /* \"#utility.yul\":8539:8544   */\n      dup3\n        /* \"#utility.yul\":8509:8548   */\n      tag_63\n      jump\t// in\n    tag_157:\n        /* \"#utility.yul\":8482:8483   */\n      0x01\n        /* \"#utility.yul\":8475:8480   */\n      dup2\n        /* \"#utility.yul\":8471:8484   */\n      add\n        /* \"#utility.yul\":8462:8484   */\n      swap1\n      pop\n        /* \"#utility.yul\":8438:8558   */\n      jump(tag_154)\n    tag_156:\n        /* \"#utility.yul\":8378:8564   */\n      pop\n      pop\n      jump\t// out\n        /* \"#utility.yul\":8570:9113   */\n    tag_65:\n        /* \"#utility.yul\":8671:8673   */\n      0x1f\n        /* \"#utility.yul\":8666:8669   */\n      dup3\n        /* \"#utility.yul\":8663:8674   */\n      gt\n        /* \"#utility.yul\":8660:9106   */\n      iszero\n      tag_159\n      jumpi\n        /* \"#utility.yul\":8705:8743   */\n      tag_160\n        /* \"#utility.yul\":8737:8742   */\n      dup2\n        /* \"#utility.yul\":8705:8743   */\n      tag_54\n      jump\t// in\n    tag_160:\n        /* \"#utility.yul\":8789:8818   */\n      tag_161\n        /* \"#utility.yul\":8807:8817   */\n      dup5\n        /* \"#utility.yul\":8789:8818   */\n      tag_55\n      jump\t// in\n    tag_161:\n        /* \"#utility.yul\":8779:8787   */\n      dup2\n        /* \"#utility.yul\":8775:8819   */\n      add\n        /* \"#utility.yul\":8972:8974   */\n      0x20\n        /* \"#utility.yul\":8960:8970   */\n      dup6\n        /* \"#utility.yul\":8957:8975   */\n      lt\n        /* \"#utility.yul\":8954:9003   */\n      iszero\n      tag_162\n      jumpi\n        /* \"#utility.yul\":8993:9001   */\n      dup2\n        /* \"#utility.yul\":8978:9001   */\n      swap1\n      pop\n        /* \"#utility.yul\":8954:9003   */\n    tag_162:\n        /* \"#utility.yul\":9016:9096   */\n      tag_163\n        /* \"#utility.yul\":9072:9094   */\n      tag_164\n        /* \"#utility.yul\":9090:9093   */\n      dup6\n        /* \"#utility.yul\":9072:9094   */\n      tag_55\n      jump\t// in\n    tag_164:\n        /* \"#utility.yul\":9062:9070   */\n      dup4\n        /* \"#utility.yul\":9058:9095   */\n      add\n        /* \"#utility.yul\":9045:9056   */\n      dup3\n        /* \"#utility.yul\":9016:9096   */\n      tag_64\n      jump\t// in\n    tag_163:\n        /* \"#utility.yul\":8675:9106   */\n      pop\n      pop\n        /* \"#utility.yul\":8660:9106   */\n    tag_159:\n        /* \"#utility.yul\":8570:9113   */\n      pop\n      pop\n      pop\n      jump\t// out\n        /* \"#utility.yul\":9119:9236   */\n    tag_66:\n        /* \"#utility.yul\":9173:9181   */\n      0x00\n        /* \"#utility.yul\":9223:9228   */\n      dup3\n        /* \"#utility.yul\":9217:9221   */\n      dup3\n        /* \"#utility.yul\":9213:9229   */\n      shr\n        /* \"#utility.yul\":9192:9229   */\n      swap1\n      pop\n        /* \"#utility.yul\":9119:9236   */\n      swap3\n      swap2\n      pop\n      pop\n      jump\t// out\n        /* \"#utility.yul\":9242:9411   */\n    tag_67:\n        /* \"#utility.yul\":9286:9292   */\n      0x00\n        /* \"#utility.yul\":9319:9370   */\n      tag_167\n        /* \"#utility.yul\":9367:9368   */\n      0x00\n        /* \"#utility.yul\":9363:9369   */\n      not\n        /* \"#utility.yul\":9355:9360   */\n      dup5\n        /* \"#utility.yul\":9352:9353   */\n      0x08\n        /* \"#utility.yul\":9348:9361   */\n      mul\n        /* \"#utility.yul\":9319:9370   */\n      tag_66\n      jump\t// in\n    tag_167:\n        /* \"#utility.yul\":9315:9371   */\n      not\n        /* \"#utility.yul\":9400:9404   */\n      dup1\n        /* \"#utility.yul\":9394:9398   */\n      dup4\n        /* \"#utility.yul\":9390:9405   */\n      and\n        /* \"#utility.yul\":9380:9405   */\n      swap2\n      pop\n        /* \"#utility.yul\":9293:9411   */\n      pop\n        /* \"#utility.yul\":9242:9411   */\n      swap3\n      swap2\n      pop\n      pop\n      jump\t// out\n        /* \"#utility.yul\":9416:9711   */\n    tag_68:\n        /* \"#utility.yul\":9492:9496   */\n      0x00\n        /* \"#utility.yul\":9638:9667   */\n      tag_169\n        /* \"#utility.yul\":9663:9666   */\n      dup4\n        /* \"#utility.yul\":9657:9661   */\n      dup4\n        /* \"#utility.yul\":9638:9667   */\n      tag_67\n      jump\t// in\n    tag_169:\n        /* \"#utility.yul\":9630:9667   */\n      swap2\n      pop\n        /* \"#utility.yul\":9700:9703   */\n      dup3\n        /* \"#utility.yul\":9697:9698   */\n      0x02\n        /* \"#utility.yul\":9693:9704   */\n      mul\n        /* \"#utility.yul\":9687:9691   */\n      dup3\n        /* \"#utility.yul\":9684:9705   */\n      or\n        /* \"#utility.yul\":9676:9705   */\n      swap1\n      pop\n        /* \"#utility.yul\":9416:9711   */\n      swap3\n      swap2\n      pop\n      pop\n      jump\t// out\n        /* \"#utility.yul\":9716:11119   */\n    tag_22:\n        /* \"#utility.yul\":9840:9884   */\n      tag_171\n        /* \"#utility.yul\":9880:9883   */\n      dup4\n        /* \"#utility.yul\":9875:9878   */\n      dup4\n        /* \"#utility.yul\":9840:9884   */\n      tag_52\n      jump\t// in\n    tag_171:\n        /* \"#utility.yul\":9949:9967   */\n      0xffffffffffffffff\n        /* \"#utility.yul\":9941:9947   */\n      dup2\n        /* \"#utility.yul\":9938:9968   */\n      gt\n        /* \"#utility.yul\":9935:9991   */\n      iszero\n      tag_172\n      jumpi\n        /* \"#utility.yul\":9971:9989   */\n      tag_173\n      tag_53\n      jump\t// in\n    tag_173:\n        /* \"#utility.yul\":9935:9991   */\n    tag_172:\n        /* \"#utility.yul\":10015:10053   */\n      tag_174\n        /* \"#utility.yul\":10047:10051   */\n      dup3\n        /* \"#utility.yul\":10041:10052   */\n      sload\n        /* \"#utility.yul\":10015:10053   */\n      tag_17\n      jump\t// in\n    tag_174:\n        /* \"#utility.yul\":10100:10167   */\n      tag_175\n        /* \"#utility.yul\":10160:10166   */\n      dup3\n        /* \"#utility.yul\":10152:10158   */\n      dup3\n        /* \"#utility.yul\":10146:10150   */\n      dup6\n        /* \"#utility.yul\":10100:10167   */\n      tag_65\n      jump\t// in\n    tag_175:\n        /* \"#utility.yul\":10194:10195   */\n      0x00\n        /* \"#utility.yul\":10223:10225   */\n      0x1f\n        /* \"#utility.yul\":10215:10221   */\n      dup4\n        /* \"#utility.yul\":10212:10226   */\n      gt\n        /* \"#utility.yul\":10240:10241   */\n      0x01\n        /* \"#utility.yul\":10235:10867   */\n      dup2\n      eq\n      tag_177\n      jumpi\n        /* \"#utility.yul\":10911:10912   */\n      0x00\n        /* \"#utility.yul\":10928:10934   */\n      dup5\n        /* \"#utility.yul\":10925:11009   */\n      iszero\n      tag_178\n      jumpi\n        /* \"#utility.yul\":10984:10993   */\n      dup3\n        /* \"#utility.yul\":10979:10982   */\n      dup8\n        /* \"#utility.yul\":10975:10994   */\n      add\n        /* \"#utility.yul\":10962:10995   */\n      calldataload\n        /* \"#utility.yul\":10953:10995   */\n      swap1\n      pop\n        /* \"#utility.yul\":10925:11009   */\n    tag_178:\n        /* \"#utility.yul\":11035:11102   */\n      tag_179\n        /* \"#utility.yul\":11095:11101   */\n      dup6\n        /* \"#utility.yul\":11088:11093   */\n      dup3\n        /* \"#utility.yul\":11035:11102   */\n      tag_68\n      jump\t// in\n    tag_179:\n        /* \"#utility.yul\":11029:11033   */\n      dup7\n        /* \"#utility.yul\":11022:11103   */\n      sstore\n        /* \"#utility.yul\":10884:11113   */\n      pop\n        /* \"#utility.yul\":10205:11113   */\n      jump(tag_176)\n        /* \"#utility.yul\":10235:10867   */\n    tag_177:\n        /* \"#utility.yul\":10287:10291   */\n      0x1f\n        /* \"#utility.yul\":10283:10292   */\n      not\n        /* \"#utility.yul\":10275:10281   */\n      dup5\n        /* \"#utility.yul\":10271:10293   */\n      and\n        /* \"#utility.yul\":10321:10358   */\n      tag_180\n        /* \"#utility.yul\":10353:10357   */\n      dup7\n        /* \"#utility.yul\":10321:10358   */\n      tag_54\n      jump\t// in\n    tag_180:\n        /* \"#utility.yul\":10380:10381   */\n      0x00\n        /* \"#utility.yul\":10394:10609   */\n    tag_181:\n        /* \"#utility.yul\":10408:10415   */\n      dup3\n        /* \"#utility.yul\":10405:10406   */\n      dup2\n        /* \"#utility.yul\":10402:10416   */\n      lt\n        /* \"#utility.yul\":10394:10609   */\n      iszero\n      tag_183\n      jumpi\n        /* \"#utility.yul\":10494:10503   */\n      dup5\n        /* \"#utility.yul\":10489:10492   */\n      dup10\n        /* \"#utility.yul\":10485:10504   */\n      add\n        /* \"#utility.yul\":10472:10505   */\n      calldataload\n        /* \"#utility.yul\":10464:10470   */\n      dup3\n        /* \"#utility.yul\":10457:10506   */\n      sstore\n        /* \"#utility.yul\":10545:10546   */\n      0x01\n        /* \"#utility.yul\":10537:10543   */\n      dup3\n        /* \"#utility.yul\":10533:10547   */\n      add\n        /* \"#utility.yul\":10523:10547   */\n      swap2\n      pop\n        /* \"#utility.yul\":10592:10594   */\n      0x20\n        /* \"#utility.yul\":10581:10590   */\n      dup6\n        /* \"#utility.yul\":10577:10595   */\n      add\n        /* \"#utility.yul\":10564:10595   */\n      swap5\n      pop\n        /* \"#utility.yul\":10431:10435   */\n      0x20\n        /* \"#utility.yul\":10428:10429   */\n      dup2\n        /* \"#utility.yul\":10424:10436   */\n      add\n        /* \"#utility.yul\":10419:10436   */\n      swap1\n      pop\n        /* \"#utility.yul\":10394:10609   */\n      jump(tag_181)\n    tag_183:\n        /* \"#utility.yul\":10637:10643   */\n      dup7\n        /* \"#utility.yul\":10628:10635   */\n      dup4\n        /* \"#utility.yul\":10625:10644   */\n      lt\n        /* \"#utility.yul\":10622:10808   */\n      iszero\n      tag_184\n      jumpi\n        /* \"#utility.yul\":10702:10711   */\n      dup5\n        /* \"#utility.yul\":10697:10700   */\n      dup10\n        /* \"#utility.yul\":10693:10712   */\n      add\n        /* \"#utility.yul\":10680:10713   */\n      calldataload\n        /* \"#utility.yul\":10745:10793   */\n      tag_185\n        /* \"#utility.yul\":10787:10791   */\n      0x1f\n        /* \"#utility.yul\":10779:10785   */\n      dup10\n        /* \"#utility.yul\":10775:10792   */\n      and\n        /* \"#utility.yul\":10764:10773   */\n      dup3\n        /* \"#utility.yul\":10745:10793   */\n      tag_67\n      jump\t// in\n    tag_185:\n        /* \"#utility.yul\":10737:10743   */\n      dup4\n        /* \"#utility.yul\":10730:10794   */\n      sstore\n        /* \"#utility.yul\":10645:10808   */\n      pop\n        /* \"#utility.yul\":10622:10808   */\n    tag_184:\n        /* \"#utility.yul\":10854:10855   */\n      0x01\n        /* \"#utility.yul\":10850:10851   */\n      0x02\n        /* \"#utility.yul\":10842:10848   */\n      dup9\n        /* \"#utility.yul\":10838:10852   */\n      mul\n        /* \"#utility.yul\":10834:10856   */\n      add\n        /* \"#utility.yul\":10828:10832   */\n      dup9\n        /* \"#utility.yul\":10821:10857   */\n      sstore\n        /* \"#utility.yul\":10242:10867   */\n      pop\n      pop\n      pop\n        /* \"#utility.yul\":10205:11113   */\n    tag_176:\n      pop\n        /* \"#utility.yul\":9815:11119   */\n      pop\n      pop\n      pop\n        /* \"#utility.yul\":9716:11119   */\n      pop\n      pop\n      pop\n      jump\t// out\n\n    auxdata: 0xa264697066735822122020eb9168d972bc36fe8916961dcf38d2d2a59cab80e381c85e5e85dbf01dc1cd64736f6c634300081a0033\n}\n",
				"bytecode": {
					"linkReferences": {},
					"object": "6080604052348015600f57600080fd5b5061080a8061001f6000396000f3fe608060405234801561001057600080fd5b50600436106100365760003560e01c8063ab2258a21461003b578063f781e3ae14610057575b600080fd5b610055600480360381019061005091906102b6565b610087565b005b610071600480360381019061006c9190610316565b61012f565b60405161007e919061041f565b60405180910390f35b600080600085815260200190815260200160002060000180546100a990610470565b9050146100eb576040517f08c379a00000000000000000000000000000000000000000000000000000000081526004016100e2906104fe565b60405180910390fd5b8181600080868152602001908152602001600020600001918261010f929190610704565b504360008085815260200190815260200160002060010181905550505050565b6101376101f7565b60008083815260200190815260200160002060405180604001604052908160008201805461016490610470565b80601f016020809104026020016040519081016040528092919081815260200182805461019090610470565b80156101dd5780601f106101b2576101008083540402835291602001916101dd565b820191906000526020600020905b8154815290600101906020018083116101c057829003601f168201915b505050505081526020016001820154815250509050919050565b604051806040016040528060608152602001600081525090565b600080fd5b600080fd5b6000819050919050565b61022e8161021b565b811461023957600080fd5b50565b60008135905061024b81610225565b92915050565b600080fd5b600080fd5b600080fd5b60008083601f84011261027657610275610251565b5b8235905067ffffffffffffffff81111561029357610292610256565b5b6020830191508360018202830111156102af576102ae61025b565b5b9250929050565b6000806000604084860312156102cf576102ce610211565b5b60006102dd8682870161023c565b935050602084013567ffffffffffffffff8111156102fe576102fd610216565b5b61030a86828701610260565b92509250509250925092565b60006020828403121561032c5761032b610211565b5b600061033a8482850161023c565b91505092915050565b600081519050919050565b600082825260208201905092915050565b60005b8381101561037d578082015181840152602081019050610362565b60008484015250505050565b6000601f19601f8301169050919050565b60006103a582610343565b6103af818561034e565b93506103bf81856020860161035f565b6103c881610389565b840191505092915050565b6103dc8161021b565b82525050565b600060408301600083015184820360008601526103ff828261039a565b915050602083015161041460208601826103d3565b508091505092915050565b6000602082019050818103600083015261043981846103e2565b905092915050565b7f4e487b7100000000000000000000000000000000000000000000000000000000600052602260045260246000fd5b6000600282049050600182168061048857607f821691505b60208210810361049b5761049a610441565b5b50919050565b600082825260208201905092915050565b7f616c726561647920726567697374657265640000000000000000000000000000600082015250565b60006104e86012836104a1565b91506104f3826104b2565b602082019050919050565b60006020820190508181036000830152610517816104db565b9050919050565b600082905092915050565b7f4e487b7100000000000000000000000000000000000000000000000000000000600052604160045260246000fd5b60008190508160005260206000209050919050565b60006020601f8301049050919050565b600082821b905092915050565b6000600883026105ba7fffffffffffffffffffffffffffffffffffffffffffffffffffffffffffffffff8261057d565b6105c4868361057d565b95508019841693508086168417925050509392505050565b6000819050919050565b60006106016105fc6105f78461021b565b6105dc565b61021b565b9050919050565b6000819050919050565b61061b836105e6565b61062f61062782610608565b84845461058a565b825550505050565b600090565b610644610637565b61064f818484610612565b505050565b5b818110156106735761066860008261063c565b600181019050610655565b5050565b601f8211156106b85761068981610558565b6106928461056d565b810160208510156106a1578190505b6106b56106ad8561056d565b830182610654565b50505b505050565b600082821c905092915050565b60006106db600019846008026106bd565b1980831691505092915050565b60006106f483836106ca565b9150826002028217905092915050565b61070e838361051e565b67ffffffffffffffff81111561072757610726610529565b5b6107318254610470565b61073c828285610677565b6000601f83116001811461076b5760008415610759578287013590505b61076385826106e8565b8655506107cb565b601f19841661077986610558565b60005b828110156107a15784890135825560018201915060208501945060208101905061077c565b868310156107be57848901356107ba601f8916826106ca565b8355505b6001600288020188555050505b5050505050505056fea264697066735822122020eb9168d972bc36fe8916961dcf38d2d2a59cab80e381c85e5e85dbf01dc1cd64736f6c634300081a0033",
					"opcodes": "PUSH1 0x80 PUSH1 0x40 MSTORE CALLVALUE DUP1 ISZERO PUSH1 0xF JUMPI PUSH1 0x0 DUP1 REVERT JUMPDEST POP PUSH2 0x80A DUP1 PUSH2 0x1F PUSH1 0x0 CODECOPY PUSH1 0x0 RETURN INVALID PUSH1 0x80 PUSH1 0x40 MSTORE CALLVALUE DUP1 ISZERO PUSH2 0x10 JUMPI PUSH1 0x0 DUP1 REVERT JUMPDEST POP PUSH1 0x4 CALLDATASIZE LT PUSH2 0x36 JUMPI PUSH1 0x0 CALLDATALOAD PUSH1 0xE0 SHR DUP1 PUSH4 0xAB2258A2 EQ PUSH2 0x3B JUMPI DUP1 PUSH4 0xF781E3AE EQ PUSH2 0x57 JUMPI JUMPDEST PUSH1 0x0 DUP1 REVERT JUMPDEST PUSH2 0x55 PUSH1 0x4 DUP1 CALLDATASIZE SUB DUP2 ADD SWAP1 PUSH2 0x50 SWAP2 SWAP1 PUSH2 0x2B6 JUMP JUMPDEST PUSH2 0x87 JUMP JUMPDEST STOP JUMPDEST PUSH2 0x71 PUSH1 0x4 DUP1 CALLDATASIZE SUB DUP2 ADD SWAP1 PUSH2 0x6C SWAP2 SWAP1 PUSH2 0x316 JUMP JUMPDEST PUSH2 0x12F JUMP JUMPDEST PUSH1 0x40 MLOAD PUSH2 0x7E SWAP2 SWAP1 PUSH2 0x41F JUMP JUMPDEST PUSH1 0x40 MLOAD DUP1 SWAP2 SUB SWAP1 RETURN JUMPDEST PUSH1 0x0 DUP1 PUSH1 0x0 DUP6 DUP2 MSTORE PUSH1 0x20 ADD SWAP1 DUP2 MSTORE PUSH1 0x20 ADD PUSH1 0x0 KECCAK256 PUSH1 0x0 ADD DUP1 SLOAD PUSH2 0xA9 SWAP1 PUSH2 0x470 JUMP JUMPDEST SWAP1 POP EQ PUSH2 0xEB JUMPI PUSH1 0x40 MLOAD PUSH32 0x8C379A000000000000000000000000000000000000000000000000000000000 DUP2 MSTORE PUSH1 0x4 ADD PUSH2 0xE2 SWAP1 PUSH2 0x4FE JUMP JUMPDEST PUSH1 0x40 MLOAD DUP1 SWAP2 SUB SWAP1 REVERT JUMPDEST DUP2 DUP2 PUSH1 0x0 DUP1 DUP7 DUP2 MSTORE PUSH1 0x20 ADD SWAP1 DUP2 MSTORE PUSH1 0x20 ADD PUSH1 0x0 KECCAK256 PUSH1 0x0 ADD SWAP2 DUP3 PUSH2 0x10F SWAP3 SWAP2 SWAP1 PUSH2 0x704 JUMP JUMPDEST POP NUMBER PUSH1 0x0 DUP1 DUP6 DUP2 MSTORE PUSH1 0x20 ADD SWAP1 DUP2 MSTORE PUSH1 0x20 ADD PUSH1 0x0 KECCAK256 PUSH1 0x1 ADD DUP2 SWAP1 SSTORE POP POP POP POP JUMP JUMPDEST PUSH2 0x137 PUSH2 0x1F7 JUMP JUMPDEST PUSH1 0x0 DUP1 DUP4 DUP2 MSTORE PUSH1 0x20 ADD SWAP1 DUP2 MSTORE PUSH1 0x20 ADD PUSH1 0x0 KECCAK256 PUSH1 0x40 MLOAD DUP1 PUSH1 0x40 ADD PUSH1 0x40 MSTORE SWAP1 DUP2 PUSH1 0x0 DUP3 ADD DUP1 SLOAD PUSH2 0x164 SWAP1 PUSH2 0x470 JUMP JUMPDEST DUP1 PUSH1 0x1F ADD PUSH1 0x20 DUP1 SWAP2 DIV MUL PUSH1 0x20 ADD PUSH1 0x40 MLOAD SWAP1 DUP2 ADD PUSH1 0x40 MSTORE DUP1 SWAP3 SWAP2 SWAP1 DUP2 DUP2 MSTORE PUSH1 0x20 ADD DUP3 DUP1 SLOAD PUSH2 0x190 SWAP1 PUSH2 0x470 JUMP JUMPDEST DUP1 ISZERO PUSH2 0x1DD JUMPI DUP1 PUSH1 0x1F LT PUSH2 0x1B2 JUMPI PUSH2 0x100 DUP1 DUP4 SLOAD DIV MUL DUP4 MSTORE SWAP2 PUSH1 0x20 ADD SWAP2 PUSH2 0x1DD JUMP JUMPDEST DUP3 ADD SWAP2 SWAP1 PUSH1 0x0 MSTORE PUSH1 0x20 PUSH1 0x0 KECCAK256 SWAP1 JUMPDEST DUP2 SLOAD DUP2 MSTORE SWAP1 PUSH1 0x1 ADD SWAP1 PUSH1 0x20 ADD DUP1 DUP4 GT PUSH2 0x1C0 JUMPI DUP3 SWAP1 SUB PUSH1 0x1F AND DUP3 ADD SWAP2 JUMPDEST POP POP POP POP POP DUP2 MSTORE PUSH1 0x20 ADD PUSH1 0x1 DUP3 ADD SLOAD DUP2 MSTORE POP POP SWAP1 POP SWAP2 SWAP1 POP JUMP JUMPDEST PUSH1 0x40 MLOAD DUP1 PUSH1 0x40 ADD PUSH1 0x40 MSTORE DUP1 PUSH1 0x60 DUP2 MSTORE PUSH1 0x20 ADD PUSH1 0x0 DUP2 MSTORE POP SWAP1 JUMP JUMPDEST PUSH1 0x0 DUP1 REVERT JUMPDEST PUSH1 0x0 DUP1 REVERT JUMPDEST PUSH1 0x0 DUP2 SWAP1 POP SWAP2 SWAP1 POP JUMP JUMPDEST PUSH2 0x22E DUP2 PUSH2 0x21B JUMP JUMPDEST DUP2 EQ PUSH2 0x239 JUMPI PUSH1 0x0 DUP1 REVERT JUMPDEST POP JUMP JUMPDEST PUSH1 0x0 DUP2 CALLDATALOAD SWAP1 POP PUSH2 0x24B DUP2 PUSH2 0x225 JUMP JUMPDEST SWAP3 SWAP2 POP POP JUMP JUMPDEST PUSH1 0x0 DUP1 REVERT JUMPDEST PUSH1 0x0 DUP1 REVERT JUMPDEST PUSH1 0x0 DUP1 REVERT JUMPDEST PUSH1 0x0 DUP1 DUP4 PUSH1 0x1F DUP5 ADD SLT PUSH2 0x276 JUMPI PUSH2 0x275 PUSH2 0x251 JUMP JUMPDEST JUMPDEST DUP3 CALLDATALOAD SWAP1 POP PUSH8 0xFFFFFFFFFFFFFFFF DUP2 GT ISZERO PUSH2 0x293 JUMPI PUSH2 0x292 PUSH2 0x256 JUMP JUMPDEST JUMPDEST PUSH1 0x20 DUP4 ADD SWAP2 POP DUP4 PUSH1 0x1 DUP3 MUL DUP4 ADD GT ISZERO PUSH2 0x2AF JUMPI PUSH2 0x2AE PUSH2 0x25B JUMP JUMPDEST JUMPDEST SWAP3 POP SWAP3 SWAP1 POP JUMP JUMPDEST PUSH1 0x0 DUP1 PUSH1 0x0 PUSH1 0x40 DUP5 DUP7 SUB SLT ISZERO PUSH2 0x2CF JUMPI PUSH2 0x2CE PUSH2 0x211 JUMP JUMPDEST JUMPDEST PUSH1 0x0 PUSH2 0x2DD DUP7 DUP3 DUP8 ADD PUSH2 0x23C JUMP JUMPDEST SWAP4 POP POP PUSH1 0x20 DUP5 ADD CALLDATALOAD PUSH8 0xFFFFFFFFFFFFFFFF DUP2 GT ISZERO PUSH2 0x2FE JUMPI PUSH2 0x2FD PUSH2 0x216 JUMP JUMPDEST JUMPDEST PUSH2 0x30A DUP7 DUP3 DUP8 ADD PUSH2 0x260 JUMP JUMPDEST SWAP3 POP SWAP3 POP POP SWAP3 POP SWAP3 POP SWAP3 JUMP JUMPDEST PUSH1 0x0 PUSH1 0x20 DUP3 DUP5 SUB SLT ISZERO PUSH2 0x32C JUMPI PUSH2 0x32B PUSH2 0x211 JUMP JUMPDEST JUMPDEST PUSH1 0x0 PUSH2 0x33A DUP5 DUP3 DUP6 ADD PUSH2 0x23C JUMP JUMPDEST SWAP2 POP POP SWAP3 SWAP2 POP POP JUMP JUMPDEST PUSH1 0x0 DUP2 MLOAD SWAP1 POP SWAP2 SWAP1 POP JUMP JUMPDEST PUSH1 0x0 DUP3 DUP3 MSTORE PUSH1 0x20 DUP3 ADD SWAP1 POP SWAP3 SWAP2 POP POP JUMP JUMPDEST PUSH1 0x0 JUMPDEST DUP4 DUP2 LT ISZERO PUSH2 0x37D JUMPI DUP1 DUP3 ADD MLOAD DUP2 DUP5 ADD MSTORE PUSH1 0x20 DUP2 ADD SWAP1 POP PUSH2 0x362 JUMP JUMPDEST PUSH1 0x0 DUP5 DUP5 ADD MSTORE POP POP POP POP JUMP JUMPDEST PUSH1 0x0 PUSH1 0x1F NOT PUSH1 0x1F DUP4 ADD AND SWAP1 POP SWAP2 SWAP1 POP JUMP JUMPDEST PUSH1 0x0 PUSH2 0x3A5 DUP3 PUSH2 0x343 JUMP JUMPDEST PUSH2 0x3AF DUP2 DUP6 PUSH2 0x34E JUMP JUMPDEST SWAP4 POP PUSH2 0x3BF DUP2 DUP6 PUSH1 0x20 DUP7 ADD PUSH2 0x35F JUMP JUMPDEST PUSH2 0x3C8 DUP2 PUSH2 0x389 JUMP JUMPDEST DUP5 ADD SWAP2 POP POP SWAP3 SWAP2 POP POP JUMP JUMPDEST PUSH2 0x3DC DUP2 PUSH2 0x21B JUMP JUMPDEST DUP3 MSTORE POP POP JUMP JUMPDEST PUSH1 0x0 PUSH1 0x40 DUP4 ADD PUSH1 0x0 DUP4 ADD MLOAD DUP5 DUP3 SUB PUSH1 0x0 DUP7 ADD MSTORE PUSH2 0x3FF DUP3 DUP3 PUSH2 0x39A JUMP JUMPDEST SWAP2 POP POP PUSH1 0x20 DUP4 ADD MLOAD PUSH2 0x414 PUSH1 0x20 DUP7 ADD DUP3 PUSH2 0x3D3 JUMP JUMPDEST POP DUP1 SWAP2 POP POP SWAP3 SWAP2 POP POP JUMP JUMPDEST PUSH1 0x0 PUSH1 0x20 DUP3 ADD SWAP1 POP DUP2 DUP2 SUB PUSH1 0x0 DUP4 ADD MSTORE PUSH2 0x439 DUP2 DUP5 PUSH2 0x3E2 JUMP JUMPDEST SWAP1 POP SWAP3 SWAP2 POP POP JUMP JUMPDEST PUSH32 0x4E487B7100000000000000000000000000000000000000000000000000000000 PUSH1 0x0 MSTORE PUSH1 0x22 PUSH1 0x4 MSTORE PUSH1 0x24 PUSH1 0x0 REVERT JUMPDEST PUSH1 0x0 PUSH1 0x2 DUP3 DIV SWAP1 POP PUSH1 0x1 DUP3 AND DUP1 PUSH2 0x488 JUMPI PUSH1 0x7F DUP3 AND SWAP2 POP JUMPDEST PUSH1 0x20 DUP3 LT DUP2 SUB PUSH2 0x49B JUMPI PUSH2 0x49A PUSH2 0x441 JUMP JUMPDEST JUMPDEST POP SWAP2 SWAP1 POP JUMP JUMPDEST PUSH1 0x0 DUP3 DUP3 MSTORE PUSH1 0x20 DUP3 ADD SWAP1 POP SWAP3 SWAP2 POP POP JUMP JUMPDEST PUSH32 0x616C726561647920726567697374657265640000000000000000000000000000 PUSH1 0x0 DUP3 ADD MSTORE POP JUMP JUMPDEST PUSH1 0x0 PUSH2 0x4E8 PUSH1 0x12 DUP4 PUSH2 0x4A1 JUMP JUMPDEST SWAP2 POP PUSH2 0x4F3 DUP3 PUSH2 0x4B2 JUMP JUMPDEST PUSH1 0x20 DUP3 ADD SWAP1 POP SWAP2 SWAP1 POP JUMP JUMPDEST PUSH1 0x0 PUSH1 0x20 DUP3 ADD SWAP1 POP DUP2 DUP2 SUB PUSH1 0x0 DUP4 ADD MSTORE PUSH2 0x517 DUP2 PUSH2 0x4DB JUMP JUMPDEST SWAP1 POP SWAP2 SWAP1 POP JUMP JUMPDEST PUSH1 0x0 DUP3 SWAP1 POP SWAP3 SWAP2 POP POP JUMP JUMPDEST PUSH32 0x4E487B7100000000000000000000000000000000000000000000000000000000 PUSH1 0x0 MSTORE PUSH1 0x41 PUSH1 0x4 MSTORE PUSH1 0x24 PUSH1 0x0 REVERT JUMPDEST PUSH1 0x0 DUP2 SWAP1 POP DUP2 PUSH1 0x0 MSTORE PUSH1 0x20 PUSH1 0x0 KECCAK256 SWAP1 POP SWAP2 SWAP1 POP JUMP JUMPDEST PUSH1 0x0 PUSH1 0x20 PUSH1 0x1F DUP4 ADD DIV SWAP1 POP SWAP2 SWAP1 POP JUMP JUMPDEST PUSH1 0x0 DUP3 DUP3 SHL SWAP1 POP SWAP3 SWAP2 POP POP JUMP JUMPDEST PUSH1 0x0 PUSH1 0x8 DUP4 MUL PUSH2 0x5BA PUSH32 0xFFFFFFFFFFFFFFFFFFFFFFFFFFFFFFFFFFFFFFFFFFFFFFFFFFFFFFFFFFFFFFFF DUP3 PUSH2 0x57D JUMP JUMPDEST PUSH2 0x5C4 DUP7 DUP4 PUSH2 0x57D JUMP JUMPDEST SWAP6 POP DUP1 NOT DUP5 AND SWAP4 POP DUP1 DUP7 AND DUP5 OR SWAP3 POP POP POP SWAP4 SWAP3 POP POP POP JUMP JUMPDEST PUSH1 0x0 DUP2 SWAP1 POP SWAP2 SWAP1 POP JUMP JUMPDEST PUSH1 0x0 PUSH2 0x601 PUSH2 0x5FC PUSH2 0x5F7 DUP5 PUSH2 0x21B JUMP JUMPDEST PUSH2 0x5DC JUMP JUMPDEST PUSH2 0x21B JUMP JUMPDEST SWAP1 POP SWAP2 SWAP1 POP JUMP JUMPDEST PUSH1 0x0 DUP2 SWAP1 POP SWAP2 SWAP1 POP JUMP JUMPDEST PUSH2 0x61B DUP4 PUSH2 0x5E6 JUMP JUMPDEST PUSH2 0x62F PUSH2 0x627 DUP3 PUSH2 0x608 JUMP JUMPDEST DUP5 DUP5 SLOAD PUSH2 0x58A JUMP JUMPDEST DUP3 SSTORE POP POP POP POP JUMP JUMPDEST PUSH1 0x0 SWAP1 JUMP JUMPDEST PUSH2 0x644 PUSH2 0x637 JUMP JUMPDEST PUSH2 0x64F DUP2 DUP5 DUP5 PUSH2 0x612 JUMP JUMPDEST POP POP POP JUMP JUMPDEST JUMPDEST DUP2 DUP2 LT ISZERO PUSH2 0x673 JUMPI PUSH2 0x668 PUSH1 0x0 DUP3 PUSH2 0x63C JUMP JUMPDEST PUSH1 0x1 DUP2 ADD SWAP1 POP PUSH2 0x655 JUMP JUMPDEST POP POP JUMP JUMPDEST PUSH1 0x1F DUP3 GT ISZERO PUSH2 0x6B8 JUMPI PUSH2 0x689 DUP2 PUSH2 0x558 JUMP JUMPDEST PUSH2 0x692 DUP5 PUSH2 0x56D JUMP JUMPDEST DUP2 ADD PUSH1 0x20 DUP6 LT ISZERO PUSH2 0x6A1 JUMPI DUP2 SWAP1 POP JUMPDEST PUSH2 0x6B5 PUSH2 0x6AD DUP6 PUSH2 0x56D JUMP JUMPDEST DUP4 ADD DUP3 PUSH2 0x654 JUMP JUMPDEST POP POP JUMPDEST POP POP POP JUMP JUMPDEST PUSH1 0x0 DUP3 DUP3 SHR SWAP1 POP SWAP3 SWAP2 POP POP JUMP JUMPDEST PUSH1 0x0 PUSH2 0x6DB PUSH1 0x0 NOT DUP5 PUSH1 0x8 MUL PUSH2 0x6BD JUMP JUMPDEST NOT DUP1 DUP4 AND SWAP2 POP POP SWAP3 SWAP2 POP POP JUMP JUMPDEST PUSH1 0x0 PUSH2 0x6F4 DUP4 DUP4 PUSH2 0x6CA JUMP JUMPDEST SWAP2 POP DUP3 PUSH1 0x2 MUL DUP3 OR SWAP1 POP SWAP3 SWAP2 POP POP JUMP JUMPDEST PUSH2 0x70E DUP4 DUP4 PUSH2 0x51E JUMP JUMPDEST PUSH8 0xFFFFFFFFFFFFFFFF DUP2 GT ISZERO PUSH2 0x727 JUMPI PUSH2 0x726 PUSH2 0x529 JUMP JUMPDEST JUMPDEST PUSH2 0x731 DUP3 SLOAD PUSH2 0x470 JUMP JUMPDEST PUSH2 0x73C DUP3 DUP3 DUP6 PUSH2 0x677 JUMP JUMPDEST PUSH1 0x0 PUSH1 0x1F DUP4 GT PUSH1 0x1 DUP2 EQ PUSH2 0x76B JUMPI PUSH1 0x0 DUP5 ISZERO PUSH2 0x759 JUMPI DUP3 DUP8 ADD CALLDATALOAD SWAP1 POP JUMPDEST PUSH2 0x763 DUP6 DUP3 PUSH2 0x6E8 JUMP JUMPDEST DUP7 SSTORE POP PUSH2 0x7CB JUMP JUMPDEST PUSH1 0x1F NOT DUP5 AND PUSH2 0x779 DUP7 PUSH2 0x558 JUMP JUMPDEST PUSH1 0x0 JUMPDEST DUP3 DUP2 LT ISZERO PUSH2 0x7A1 JUMPI DUP5 DUP10 ADD CALLDATALOAD DUP3 SSTORE PUSH1 0x1 DUP3 ADD SWAP2 POP PUSH1 0x20 DUP6 ADD SWAP5 POP PUSH1 0x20 DUP2 ADD SWAP1 POP PUSH2 0x77C JUMP JUMPDEST DUP7 DUP4 LT ISZERO PUSH2 0x7BE JUMPI DUP5 DUP10 ADD CALLDATALOAD PUSH2 0x7BA PUSH1 0x1F DUP10 AND DUP3 PUSH2 0x6CA JUMP JUMPDEST DUP4 SSTORE POP JUMPDEST PUSH1 0x1 PUSH1 0x2 DUP9 MUL ADD DUP9 SSTORE POP POP POP JUMPDEST POP POP POP POP POP POP POP JUMP INVALID LOG2 PUSH5 0x6970667358 0x22 SLT KECCAK256 KECCAK256 0xEB SWAP2 PUSH9 0xD972BC36FE8916961D 0xCF CODESIZE 0xD2 0xD2 0xA5 SWAP13 0xAB DUP1 0xE3 DUP2 0xC8 MCOPY MCOPY DUP6 0xDB CREATE SAR 0xC1 0xCD PUSH5 0x736F6C6343 STOP ADDMOD BYTE STOP CALLER "
				},
				"gasEstimates": {
					"creation": {
						"codeDepositCost": "411600",
						"executionCost": "449",
						"totalCost": "412049"
					},
					"external": {
						"addImage(uint256,string)": "infinite",
						"getLayer(uint256)": "infinite"
					}
				},
				"methodIdentifiers": {
					"addImage(uint256,string)": "ab2258a2",
					"getLayer(uint256)": "f781e3ae"
				}
			},
			"storageLayout": {
				"storage": [
					{
						"astId": 9,
						"contract": "RakugakiLayers.sol:RakugakiLayers",
						"label": "allLayers",
						"offset": 0,
						"slot": "0",
						"type": "t_mapping(t_uint256,t_struct(RakugakiLayer)82_storage)"
					}
				],
				"types": {
					"t_mapping(t_uint256,t_struct(RakugakiLayer)82_storage)": {
						"encoding": "mapping",
						"key": "t_uint256",
						"label": "mapping(uint256 => struct RakugakiLayer)",
						"numberOfBytes": "32",
						"value": "t_struct(RakugakiLayer)82_storage"
					},
					"t_string_storage": {
						"encoding": "bytes",
						"label": "string",
						"numberOfBytes": "32"
					},
					"t_struct(RakugakiLayer)82_storage": {
						"encoding": "inplace",
						"label": "struct RakugakiLayer",
						"members": [
							{
								"astId": 79,
								"contract": "RakugakiLayers.sol:RakugakiLayers",
								"label": "image",
								"offset": 0,
								"slot": "0",
								"type": "t_string_storage"
							},
							{
								"astId": 81,
								"contract": "RakugakiLayers.sol:RakugakiLayers",
								"label": "timestamp",
								"offset": 0,
								"slot": "1",
								"type": "t_uint256"
							}
						],
						"numberOfBytes": "64"
					},
					"t_uint256": {
						"encoding": "inplace",
						"label": "uint256",
						"numberOfBytes": "32"
					}
				}
			},
			"userdoc": {
				"kind": "user",
				"methods": {},
				"version": 1
			}
		}
	}
}